{
  "contractName": "CCTWalletDistributor",
  "abi": [
    {
      "inputs": [
        {
          "internalType": "string",
          "name": "_distributorInfoCid",
          "type": "string"
        },
        {
          "internalType": "address",
          "name": "_link",
          "type": "address"
        }
      ],
      "stateMutability": "nonpayable",
      "type": "constructor"
    },
    {
      "anonymous": false,
      "inputs": [
        {
          "indexed": true,
          "internalType": "address",
          "name": "campaign",
          "type": "address"
        },
        {
          "indexed": true,
          "internalType": "address",
          "name": "token",
          "type": "address"
        },
        {
          "indexed": true,
          "internalType": "address",
          "name": "creator",
          "type": "address"
        }
      ],
      "name": "CreateCampaign",
      "type": "event"
    },
    {
      "inputs": [
        {
          "internalType": "uint256",
          "name": "",
          "type": "uint256"
        }
      ],
      "name": "campaignList",
      "outputs": [
        {
          "internalType": "address",
          "name": "",
          "type": "address"
        }
      ],
      "stateMutability": "view",
      "type": "function",
      "constant": true
    },
    {
      "inputs": [],
      "name": "distributorInfoCid",
      "outputs": [
        {
          "internalType": "string",
          "name": "",
          "type": "string"
        }
      ],
      "stateMutability": "view",
      "type": "function",
      "constant": true
    },
    {
      "inputs": [],
      "name": "link",
      "outputs": [
        {
          "internalType": "address",
          "name": "",
          "type": "address"
        }
      ],
      "stateMutability": "view",
      "type": "function",
      "constant": true
    },
    {
      "inputs": [],
      "name": "nextCampaignId",
      "outputs": [
        {
          "internalType": "uint256",
          "name": "",
          "type": "uint256"
        }
      ],
      "stateMutability": "view",
      "type": "function",
      "constant": true
    },
    {
      "inputs": [
        {
          "internalType": "address payable",
          "name": "token",
          "type": "address"
        },
        {
          "internalType": "address",
          "name": "tokenSender",
          "type": "address"
        },
        {
          "internalType": "string",
          "name": "campaignInfoCid",
          "type": "string"
        },
        {
          "internalType": "string",
          "name": "recipientsCid",
          "type": "string"
        },
        {
          "internalType": "uint32",
          "name": "recipientsNum",
          "type": "uint32"
        },
        {
          "internalType": "uint256",
          "name": "startDate",
          "type": "uint256"
        },
        {
          "internalType": "uint256",
          "name": "endDate",
          "type": "uint256"
        }
      ],
      "name": "createCampaign",
      "outputs": [],
      "stateMutability": "nonpayable",
      "type": "function"
    }
  ],
  "bytecode": "0x608060405260016002553480156200001657600080fd5b50604051620048da380380620048da833981810160405260408110156200003c57600080fd5b81019080805160405193929190846401000000008211156200005d57600080fd5b838201915060208201858111156200007457600080fd5b82518660018202830111640100000000821117156200009257600080fd5b8083526020830192505050908051906020019080838360005b83811015620000c8578082015181840152602081019050620000ab565b50505050905090810190601f168015620000f65780820380516001836020036101000a031916815260200191505b5060405260200180519060200190929190505050818181600090805190602001906200012492919062000170565b5080600160006101000a81548173ffffffffffffffffffffffffffffffffffffffff021916908373ffffffffffffffffffffffffffffffffffffffff1602179055505050505062000216565b828054600181600116156101000203166002900490600052602060002090601f016020900481019282601f10620001b357805160ff1916838001178555620001e4565b82800160010185558215620001e4579182015b82811115620001e3578251825591602001919060010190620001c6565b5b509050620001f39190620001f7565b5090565b5b8082111562000212576000816000905550600101620001f8565b5090565b6146b480620002266000396000f3fe60806040523480156200001157600080fd5b50600436106200005e5760003560e01c80631c4695f414620000635780632323884814620000995780634912c6581462000121578063504d2289146200017c5780637903a756146200033b575b600080fd5b6200006d6200035b565b604051808273ffffffffffffffffffffffffffffffffffffffff16815260200191505060405180910390f35b620000a362000381565b6040518080602001828103825283818151815260200191508051906020019080838360005b83811015620000e5578082015181840152602081019050620000c8565b50505050905090810190601f168015620001135780820380516001836020036101000a031916815260200191505b509250505060405180910390f35b62000150600480360360208110156200013957600080fd5b810190808035906020019092919050505062000423565b604051808273ffffffffffffffffffffffffffffffffffffffff16815260200191505060405180910390f35b62000339600480360360e08110156200019457600080fd5b81019080803573ffffffffffffffffffffffffffffffffffffffff169060200190929190803573ffffffffffffffffffffffffffffffffffffffff16906020019092919080359060200190640100000000811115620001f257600080fd5b8201836020820111156200020557600080fd5b803590602001918460018302840111640100000000831117156200022857600080fd5b91908080601f016020809104026020016040519081016040528093929190818152602001838380828437600081840152601f19601f820116905080830192505050505050509192919290803590602001906401000000008111156200028c57600080fd5b8201836020820111156200029f57600080fd5b80359060200191846001830284011164010000000083111715620002c257600080fd5b91908080601f016020809104026020016040519081016040528093929190818152602001838380828437600081840152601f19601f820116905080830192505050505050509192919290803563ffffffff169060200190929190803590602001909291908035906020019092919050505062000456565b005b6200034562000905565b6040518082815260200191505060405180910390f35b600160009054906101000a900473ffffffffffffffffffffffffffffffffffffffff1681565b60008054600181600116156101000203166002900480601f0160208091040260200160405190810160405280929190818152602001828054600181600116156101000203166002900480156200041b5780601f10620003ef576101008083540402835291602001916200041b565b820191906000526020600020905b815481529060010190602001808311620003fd57829003601f168201915b505050505081565b60036020528060005260406000206000915054906101000a900473ffffffffffffffffffffffffffffffffffffffff1681565b8573ffffffffffffffffffffffffffffffffffffffff163373ffffffffffffffffffffffffffffffffffffffff1614620004dc576040517f08c379a0000000000000000000000000000000000000000000000000000000008152600401808060200182810382526025815260200180620046326025913960400191505060405180910390fd5b6000620004ea88886200090b565b90506000811162000563576040517f08c379a00000000000000000000000000000000000000000000000000000000081526004018080602001828103825260208152602001807f4e6f20746f6b656e20697320617070726f76656420746f207472616e7366657281525060200191505060405180910390fd5b8363ffffffff16811015620005c4576040517f08c379a0000000000000000000000000000000000000000000000000000000008152600401808060200182810382526028815260200180620046576028913960400191505060405180910390fd5b6000620005d28286620009dd565b90506000898888600254858d8a8a600160009054906101000a900473ffffffffffffffffffffffffffffffffffffffff16604051620006119062000c7c565b808a73ffffffffffffffffffffffffffffffffffffffff16815260200180602001806020018981526020018881526020018773ffffffffffffffffffffffffffffffffffffffff1681526020018681526020018581526020018473ffffffffffffffffffffffffffffffffffffffff16815260200183810383528b818151815260200191508051906020019080838360005b83811015620006c0578082015181840152602081019050620006a3565b50505050905090810190601f168015620006ee5780820380516001836020036101000a031916815260200191505b5083810382528a818151815260200191508051906020019080838360005b83811015620007295780820151818401526020810190506200070c565b50505050905090810190601f168015620007575780820380516001836020036101000a031916815260200191505b509b505050505050505050505050604051809103906000f08015801562000782573d6000803e3d6000fd5b509050620007938a8a838662000a02565b8060036000600254815260200190815260200160002060006101000a81548173ffffffffffffffffffffffffffffffffffffffff021916908373ffffffffffffffffffffffffffffffffffffffff160217905550620007ff600160025462000adc90919063ffffffff16565b6002819055508073ffffffffffffffffffffffffffffffffffffffff1663f2fde38b336040518263ffffffff1660e01b8152600401808273ffffffffffffffffffffffffffffffffffffffff168152602001915050600060405180830381600087803b1580156200086f57600080fd5b505af115801562000884573d6000803e3d6000fd5b505050503373ffffffffffffffffffffffffffffffffffffffff168a73ffffffffffffffffffffffffffffffffffffffff168273ffffffffffffffffffffffffffffffffffffffff167f5fabae9f928238e9dba6bf478144b307825c08ff18c2e9eb3eb1590b5ca8997060405160405180910390a450505050505050505050565b60025481565b6000808390508073ffffffffffffffffffffffffffffffffffffffff1663dd62ed3e84306040518363ffffffff1660e01b8152600401808373ffffffffffffffffffffffffffffffffffffffff1681526020018273ffffffffffffffffffffffffffffffffffffffff1681526020019250505060206040518083038186803b1580156200099757600080fd5b505afa158015620009ac573d6000803e3d6000fd5b505050506040513d6020811015620009c357600080fd5b810190808051906020019092919050505091505092915050565b6000620009fa8263ffffffff168462000b6590919063ffffffff16565b905092915050565b60008490508073ffffffffffffffffffffffffffffffffffffffff166323b872dd8585856040518463ffffffff1660e01b8152600401808473ffffffffffffffffffffffffffffffffffffffff1681526020018373ffffffffffffffffffffffffffffffffffffffff1681526020018281526020019350505050602060405180830381600087803b15801562000a9757600080fd5b505af115801562000aac573d6000803e3d6000fd5b505050506040513d602081101562000ac357600080fd5b8101908080519060200190929190505050505050505050565b60008082840190508381101562000b5b576040517f08c379a000000000000000000000000000000000000000000000000000000000815260040180806020018281038252601b8152602001807f536166654d6174683a206164646974696f6e206f766572666c6f77000000000081525060200191505060405180910390fd5b8091505092915050565b600062000ba983836040518060400160405280601a81526020017f536166654d6174683a206469766973696f6e206279207a65726f00000000000081525062000bb1565b905092915050565b6000808311829062000c61576040517f08c379a00000000000000000000000000000000000000000000000000000000081526004018080602001828103825283818151815260200191508051906020019080838360005b8381101562000c2557808201518184015260208101905062000c08565b50505050905090810190601f16801562000c535780820380516001836020036101000a031916815260200191505b509250505060405180910390fd5b50600083858162000c6e57fe5b049050809150509392505050565b6139a78062000c8b8339019056fe608060405260016004556000600c60006101000a81548163ffffffff021916908363ffffffff1602179055506000600f60006101000a81548160ff021916908360028111156200004b57fe5b02179055506001600f60016101000a81548167ffffffffffffffff021916908367ffffffffffffffff1602179055503480156200008757600080fd5b50604051620039a7380380620039a78339818101604052610120811015620000ae57600080fd5b810190808051906020019092919080516040519392919084640100000000821115620000d957600080fd5b83820191506020820185811115620000f057600080fd5b82518660018202830111640100000000821117156200010e57600080fd5b8083526020830192505050908051906020019080838360005b838110156200014457808201518184015260208101905062000127565b50505050905090810190601f168015620001725780820380516001836020036101000a031916815260200191505b50604052602001805160405193929190846401000000008211156200019657600080fd5b83820191506020820185811115620001ad57600080fd5b8251866001820283011164010000000082111715620001cb57600080fd5b8083526020830192505050908051906020019080838360005b8381101562000201578082015181840152602081019050620001e4565b50505050905090810190601f1680156200022f5780820380516001836020036101000a031916815260200191505b50604052602001805190602001909291908051906020019092919080519060200190929190805190602001909291908051906020019092919080519060200190929190505050888888888888888888600062000290620004cf60201b60201c565b905080600660006101000a81548173ffffffffffffffffffffffffffffffffffffffff021916908373ffffffffffffffffffffffffffffffffffffffff1602179055508073ffffffffffffffffffffffffffffffffffffffff16600073ffffffffffffffffffffffffffffffffffffffff167f8be0079c531659141344cd1fd0a4f28419497f9722a3daafe3b4186f6b6457e060405160405180910390a35081831062000389576040517f08c379a0000000000000000000000000000000000000000000000000000000008152600401808060200182810382526025815260200180620039826025913960400191505060405180910390fd5b88600760006101000a81548173ffffffffffffffffffffffffffffffffffffffff021916908373ffffffffffffffffffffffffffffffffffffffff1602179055508760089080519060200190620003e2929190620005c5565b508660099080519060200190620003fb929190620005c5565b5085600a8190555084600b8190555083600c60046101000a81548173ffffffffffffffffffffffffffffffffffffffff021916908373ffffffffffffffffffffffffffffffffffffffff16021790555082600d8190555081600e81905550600073ffffffffffffffffffffffffffffffffffffffff168173ffffffffffffffffffffffffffffffffffffffff161415620004a5576200049f620004d760201b60201c565b620004b7565b620004b6816200058160201b60201c565b5b5050505050505050505050505050505050506200066b565b600033905090565b6200057f73c89bd4e1632d3a43cb03aaad5262cbe4038bc57173ffffffffffffffffffffffffffffffffffffffff166338cc48316040518163ffffffff1660e01b815260040160206040518083038186803b1580156200053657600080fd5b505afa1580156200054b573d6000803e3d6000fd5b505050506040513d60208110156200056257600080fd5b81019080805190602001909291905050506200058160201b60201c565b565b80600260006101000a81548173ffffffffffffffffffffffffffffffffffffffff021916908373ffffffffffffffffffffffffffffffffffffffff16021790555050565b828054600181600116156101000203166002900490600052602060002090601f016020900481019282601f106200060857805160ff191683800117855562000639565b8280016001018555821562000639579182015b82811115620006385782518255916020019190600101906200061b565b5b5090506200064891906200064c565b5090565b5b80821115620006675760008160009055506001016200064d565b5090565b613307806200067b6000396000f3fe608060405234801561001057600080fd5b50600436106101a85760003560e01c80638dc654a2116100f9578063c6bb5e8911610097578063f2fde38b11610071578063f2fde38b1461073e578063f42c68ca14610782578063f48655f114610804578063fc0c546a14610866576101a8565b8063c6bb5e89146105ca578063dd9c2d4e14610644578063ec65d0f8146106d3576101a8565b8063a1e6a255116100d3578063a1e6a255146104f6578063b06633fa1461051e578063b2c67c3314610552578063c24a0f8b146105ac576101a8565b80638dc654a2146104c45780638ed5b0fc146104ce578063980e7844146104ec576101a8565b80634bbf545b11610166578063830953ab11610140578063830953ab14610395578063884b9245146103b35780638d1e55e91461040d5780638da5cb5b14610490576101a8565b80634bbf545b1461035d578063715018a6146103815780637864e7351461038b576101a8565b8062acccbc146101ad578063042f2b65146102305780630b97bc861461026857806318dc429514610286578063200d2ed2146102e8578063474c2ad614610311575b600080fd5b6101b561089a565b6040518080602001828103825283818151815260200191508051906020019080838360005b838110156101f55780820151818401526020810190506101da565b50505050905090810190601f1680156102225780820380516001836020036101000a031916815260200191505b509250505060405180910390f35b6102666004803603604081101561024657600080fd5b810190808035906020019092919080359060200190929190505050610938565b005b610270610a84565b6040518082815260200191505060405180910390f35b6102bc6004803603602081101561029c57600080fd5b81019080803567ffffffffffffffff169060200190929190505050610a8a565b604051808273ffffffffffffffffffffffffffffffffffffffff16815260200191505060405180910390f35b6102f0610abd565b6040518082600281111561030057fe5b815260200191505060405180910390f35b6103476004803603602081101561032757600080fd5b81019080803567ffffffffffffffff169060200190929190505050610ad0565b6040518082815260200191505060405180910390f35b610365610aea565b604051808263ffffffff16815260200191505060405180910390f35b610389610b00565b005b610393610c8b565b005b61039d610fb6565b6040518082815260200191505060405180910390f35b6103f5600480360360208110156103c957600080fd5b81019080803573ffffffffffffffffffffffffffffffffffffffff169060200190929190505050610fbc565b60405180821515815260200191505060405180910390f35b610415610fdc565b6040518080602001828103825283818151815260200191508051906020019080838360005b8381101561045557808201518184015260208101905061043a565b50505050905090810190601f1680156104825780820380516001836020036101000a031916815260200191505b509250505060405180910390f35b61049861107a565b604051808273ffffffffffffffffffffffffffffffffffffffff16815260200191505060405180910390f35b6104cc6110a4565b005b6104d661133c565b6040518082815260200191505060405180910390f35b6104f4611342565b005b6104fe61166d565b604051808267ffffffffffffffff16815260200191505060405180910390f35b610526611687565b604051808273ffffffffffffffffffffffffffffffffffffffff16815260200191505060405180910390f35b6105946004803603602081101561056857600080fd5b81019080803573ffffffffffffffffffffffffffffffffffffffff1690602001909291905050506116ad565b60405180821515815260200191505060405180910390f35b6105b46116cd565b6040518082815260200191505060405180910390f35b61062c600480360360408110156105e057600080fd5b81019080803573ffffffffffffffffffffffffffffffffffffffff169060200190929190803573ffffffffffffffffffffffffffffffffffffffff1690602001909291905050506116d3565b60405180821515815260200191505060405180910390f35b6106d1600480360360c081101561065a57600080fd5b81019080803590602001909291908035906020019092919080359060200190929190803560ff169060200190929190803573ffffffffffffffffffffffffffffffffffffffff169060200190929190803573ffffffffffffffffffffffffffffffffffffffff169060200190929190505050611866565b005b61073c600480360360808110156106e957600080fd5b81019080803590602001909291908035906020019092919080357bffffffffffffffffffffffffffffffffffffffffffffffffffffffff1916906020019092919080359060200190929190505050611f72565b005b6107806004803603602081101561075457600080fd5b81019080803573ffffffffffffffffffffffffffffffffffffffff16906020019092919050505061204e565b005b6107ee6004803603606081101561079857600080fd5b81019080803573ffffffffffffffffffffffffffffffffffffffff16906020019092919080359060200190929190803573ffffffffffffffffffffffffffffffffffffffff16906020019092919050505061225e565b6040518082815260200191505060405180910390f35b6108466004803603602081101561081a57600080fd5b81019080803573ffffffffffffffffffffffffffffffffffffffff16906020019092919050505061261b565b604051808267ffffffffffffffff16815260200191505060405180910390f35b61086e612642565b604051808273ffffffffffffffffffffffffffffffffffffffff16815260200191505060405180910390f35b60098054600181600116156101000203166002900480601f0160208091040260200160405190810160405280929190818152602001828054600181600116156101000203166002900480156109305780601f1061090557610100808354040283529160200191610930565b820191906000526020600020905b81548152906001019060200180831161091357829003601f168201915b505050505081565b816005600082815260200190815260200160002060009054906101000a900473ffffffffffffffffffffffffffffffffffffffff1673ffffffffffffffffffffffffffffffffffffffff163373ffffffffffffffffffffffffffffffffffffffff16146109f0576040517f08c379a00000000000000000000000000000000000000000000000000000000081526004018080602001828103825260288152602001806132766028913960400191505060405180910390fd5b6005600082815260200190815260200160002060006101000a81549073ffffffffffffffffffffffffffffffffffffffff0219169055807f7cc135e0cebb02c3480ae5d74d377283180a2601f8f644edf7987b009316c63a60405160405180910390a260016013600084815260200190815260200160002060006101000a81548160ff021916908315150217905550505050565b600d5481565b60106020528060005260406000206000915054906101000a900473ffffffffffffffffffffffffffffffffffffffff1681565b600f60009054906101000a900460ff1681565b60006001600a8367ffffffffffffffff1602019050919050565b600c60009054906101000a900463ffffffff1681565b610b08612668565b73ffffffffffffffffffffffffffffffffffffffff16600660009054906101000a900473ffffffffffffffffffffffffffffffffffffffff1673ffffffffffffffffffffffffffffffffffffffff1614610bca576040517f08c379a00000000000000000000000000000000000000000000000000000000081526004018080602001828103825260208152602001807f4f776e61626c653a2063616c6c6572206973206e6f7420746865206f776e657281525060200191505060405180910390fd5b600073ffffffffffffffffffffffffffffffffffffffff16600660009054906101000a900473ffffffffffffffffffffffffffffffffffffffff1673ffffffffffffffffffffffffffffffffffffffff167f8be0079c531659141344cd1fd0a4f28419497f9722a3daafe3b4186f6b6457e060405160405180910390a36000600660006101000a81548173ffffffffffffffffffffffffffffffffffffffff021916908373ffffffffffffffffffffffffffffffffffffffff160217905550565b610c93612668565b73ffffffffffffffffffffffffffffffffffffffff16600660009054906101000a900473ffffffffffffffffffffffffffffffffffffffff1673ffffffffffffffffffffffffffffffffffffffff1614610d55576040517f08c379a00000000000000000000000000000000000000000000000000000000081526004018080602001828103825260208152602001807f4f776e61626c653a2063616c6c6572206973206e6f7420746865206f776e657281525060200191505060405180910390fd5b42600e5410610dcc576040517f08c379a00000000000000000000000000000000000000000000000000000000081526004018080602001828103825260198152602001807f43616d706169676e206973206e6f7420656e646564207965740000000000000081525060200191505060405180910390fd5b6002600f60006101000a81548160ff02191690836002811115610deb57fe5b02179055506000600760009054906101000a900473ffffffffffffffffffffffffffffffffffffffff1690508073ffffffffffffffffffffffffffffffffffffffff1663a9059cbb600c60049054906101000a900473ffffffffffffffffffffffffffffffffffffffff168373ffffffffffffffffffffffffffffffffffffffff166370a08231306040518263ffffffff1660e01b8152600401808273ffffffffffffffffffffffffffffffffffffffff16815260200191505060206040518083038186803b158015610ebd57600080fd5b505afa158015610ed1573d6000803e3d6000fd5b505050506040513d6020811015610ee757600080fd5b81019080805190602001909291905050506040518363ffffffff1660e01b8152600401808373ffffffffffffffffffffffffffffffffffffffff16815260200182815260200192505050602060405180830381600087803b158015610f4b57600080fd5b505af1158015610f5f573d6000803e3d6000fd5b505050506040513d6020811015610f7557600080fd5b8101908080519060200190929190505050507ff1a4f7af7ee628980477c1cfcce6c7e00a2d08730fcc70cdd17ab241a457f54d60405160405180910390a150565b600b5481565b60146020528060005260406000206000915054906101000a900460ff1681565b60088054600181600116156101000203166002900480601f0160208091040260200160405190810160405280929190818152602001828054600181600116156101000203166002900480156110725780601f1061104757610100808354040283529160200191611072565b820191906000526020600020905b81548152906001019060200180831161105557829003601f168201915b505050505081565b6000600660009054906101000a900473ffffffffffffffffffffffffffffffffffffffff16905090565b6110ac612668565b73ffffffffffffffffffffffffffffffffffffffff16600660009054906101000a900473ffffffffffffffffffffffffffffffffffffffff1673ffffffffffffffffffffffffffffffffffffffff161461116e576040517f08c379a00000000000000000000000000000000000000000000000000000000081526004018080602001828103825260208152602001807f4f776e61626c653a2063616c6c6572206973206e6f7420746865206f776e657281525060200191505060405180910390fd5b6000611178612670565b90508073ffffffffffffffffffffffffffffffffffffffff1663a9059cbb338373ffffffffffffffffffffffffffffffffffffffff166370a08231306040518263ffffffff1660e01b8152600401808273ffffffffffffffffffffffffffffffffffffffff16815260200191505060206040518083038186803b1580156111fe57600080fd5b505afa158015611212573d6000803e3d6000fd5b505050506040513d602081101561122857600080fd5b81019080805190602001909291905050506040518363ffffffff1660e01b8152600401808373ffffffffffffffffffffffffffffffffffffffff16815260200182815260200192505050602060405180830381600087803b15801561128c57600080fd5b505af11580156112a0573d6000803e3d6000fd5b505050506040513d60208110156112b657600080fd5b8101908080519060200190929190505050611339576040517f08c379a00000000000000000000000000000000000000000000000000000000081526004018080602001828103825260128152602001807f556e61626c6520746f207472616e73666572000000000000000000000000000081525060200191505060405180910390fd5b50565b600a5481565b61134a612668565b73ffffffffffffffffffffffffffffffffffffffff16600660009054906101000a900473ffffffffffffffffffffffffffffffffffffffff1673ffffffffffffffffffffffffffffffffffffffff161461140c576040517f08c379a00000000000000000000000000000000000000000000000000000000081526004018080602001828103825260208152602001807f4f776e61626c653a2063616c6c6572206973206e6f7420746865206f776e657281525060200191505060405180910390fd5b600d544210611483576040517f08c379a000000000000000000000000000000000000000000000000000000000815260040180806020018281038252601b8152602001807f43616d706169676e20697320616c72656164792073746172746564000000000081525060200191505060405180910390fd5b6001600f60006101000a81548160ff021916908360028111156114a257fe5b02179055506000600760009054906101000a900473ffffffffffffffffffffffffffffffffffffffff1690508073ffffffffffffffffffffffffffffffffffffffff1663a9059cbb600c60049054906101000a900473ffffffffffffffffffffffffffffffffffffffff168373ffffffffffffffffffffffffffffffffffffffff166370a08231306040518263ffffffff1660e01b8152600401808273ffffffffffffffffffffffffffffffffffffffff16815260200191505060206040518083038186803b15801561157457600080fd5b505afa158015611588573d6000803e3d6000fd5b505050506040513d602081101561159e57600080fd5b81019080805190602001909291905050506040518363ffffffff1660e01b8152600401808373ffffffffffffffffffffffffffffffffffffffff16815260200182815260200192505050602060405180830381600087803b15801561160257600080fd5b505af1158015611616573d6000803e3d6000fd5b505050506040513d602081101561162c57600080fd5b8101908080519060200190929190505050507ff1a4f7af7ee628980477c1cfcce6c7e00a2d08730fcc70cdd17ab241a457f54d60405160405180910390a150565b600f60019054906101000a900467ffffffffffffffff1681565b600c60049054906101000a900473ffffffffffffffffffffffffffffffffffffffff1681565b60126020528060005260406000206000915054906101000a900460ff1681565b600e5481565b600080601160008573ffffffffffffffffffffffffffffffffffffffff1673ffffffffffffffffffffffffffffffffffffffff16815260200190815260200160002060009054906101000a900467ffffffffffffffff16905060008167ffffffffffffffff161415611749576000915050611860565b601260008573ffffffffffffffffffffffffffffffffffffffff1673ffffffffffffffffffffffffffffffffffffffff16815260200190815260200160002060009054906101000a900460ff16156117a5576000915050611860565b601460008473ffffffffffffffffffffffffffffffffffffffff1673ffffffffffffffffffffffffffffffffffffffff16815260200190815260200160002060009054906101000a900460ff1615611801576000915050611860565b600061180c82610ad0565b9050600081604051602001808281526020019150506040516020818303038152906040528051906020012090506013600082815260200190815260200160002060009054906101000a900460ff1693505050505b92915050565b6000600281111561187357fe5b600f60009054906101000a900460ff16600281111561188e57fe5b14611901576040517f08c379a00000000000000000000000000000000000000000000000000000000081526004018080602001828103825260168152602001807f43616d706169676e206973206e6f74206163746976650000000000000000000081525060200191505060405180910390fd5b42600d541115611979576040517f08c379a000000000000000000000000000000000000000000000000000000000815260040180806020018281038252601b8152602001807f43616d706169676e206973206e6f74207374617274656420796574000000000081525060200191505060405180910390fd5b600e5442106119f0576040517f08c379a00000000000000000000000000000000000000000000000000000000081526004018080602001828103825260148152602001807f43616d706169676e2069732066696e697368656400000000000000000000000081525060200191505060405180910390fd5b85858585858580604051602001808273ffffffffffffffffffffffffffffffffffffffff1660601b8152601401915050604051602081830303815290604052805190602001208614611a8d576040517f08c379a000000000000000000000000000000000000000000000000000000000815260040180806020018281038252603481526020018061329e6034913960400191505060405180910390fd5b601b8360ff161015611aa057601b830192505b60606040518060400160405280601c81526020017f19457468657265756d205369676e6564204d6573736167653a0a3332000000008152509050600081886040516020018083805190602001908083835b60208310611b145780518252602082019150602081019050602083039250611af1565b6001836020036101000a038019825116818451168082178552505050505050905001828152602001925050506040516020818303038152906040528051906020012090506000600182878a8a60405160008152602001604052604051808581526020018460ff1681526020018381526020018281526020019450505050506020604051602081039080840390855afa158015611bb4573d6000803e3d6000fd5b5050506020604051035190508073ffffffffffffffffffffffffffffffffffffffff16600073ffffffffffffffffffffffffffffffffffffffff161415611c63576040517f08c379a000000000000000000000000000000000000000000000000000000000815260040180806020018281038252600c8152602001807f616464726573732069732030000000000000000000000000000000000000000081525060200191505060405180910390fd5b8073ffffffffffffffffffffffffffffffffffffffff168573ffffffffffffffffffffffffffffffffffffffff1614611d04576040517f08c379a000000000000000000000000000000000000000000000000000000000815260040180806020018281038252601b8152602001807f66726f6d2061646472657373206973206e6f74206d617463686564000000000081525060200191505060405180910390fd5b611d0e8b8b6116d3565b611d80576040517f08c379a00000000000000000000000000000000000000000000000000000000081526004018080602001828103825260168152602001807f546f6b656e206973206e6f7420636c61696d61626c650000000000000000000081525060200191505060405180910390fd5b6001601260008d73ffffffffffffffffffffffffffffffffffffffff1673ffffffffffffffffffffffffffffffffffffffff16815260200190815260200160002060006101000a81548160ff0219169083151502179055506001601460008c73ffffffffffffffffffffffffffffffffffffffff1673ffffffffffffffffffffffffffffffffffffffff16815260200190815260200160002060006101000a81548160ff0219169083151502179055506000600760009054906101000a900473ffffffffffffffffffffffffffffffffffffffff1690508073ffffffffffffffffffffffffffffffffffffffff1663a9059cbb8c600b546040518363ffffffff1660e01b8152600401808373ffffffffffffffffffffffffffffffffffffffff16815260200182815260200192505050602060405180830381600087803b158015611eca57600080fd5b505af1158015611ede573d6000803e3d6000fd5b505050506040513d6020811015611ef457600080fd5b8101908080519060200190929190505050508a73ffffffffffffffffffffffffffffffffffffffff168c73ffffffffffffffffffffffffffffffffffffffff167f1836092b86c602f5dc00f47313b2873163879c06590285c6c58d63e208ac746660405160405180910390a350505050505050505050505050505050565b611f7a612668565b73ffffffffffffffffffffffffffffffffffffffff16600660009054906101000a900473ffffffffffffffffffffffffffffffffffffffff1673ffffffffffffffffffffffffffffffffffffffff161461203c576040517f08c379a00000000000000000000000000000000000000000000000000000000081526004018080602001828103825260208152602001807f4f776e61626c653a2063616c6c6572206973206e6f7420746865206f776e657281525060200191505060405180910390fd5b6120488484848461269a565b50505050565b612056612668565b73ffffffffffffffffffffffffffffffffffffffff16600660009054906101000a900473ffffffffffffffffffffffffffffffffffffffff1673ffffffffffffffffffffffffffffffffffffffff1614612118576040517f08c379a00000000000000000000000000000000000000000000000000000000081526004018080602001828103825260208152602001807f4f776e61626c653a2063616c6c6572206973206e6f7420746865206f776e657281525060200191505060405180910390fd5b600073ffffffffffffffffffffffffffffffffffffffff168173ffffffffffffffffffffffffffffffffffffffff16141561219e576040517f08c379a000000000000000000000000000000000000000000000000000000000815260040180806020018281038252602681526020018061322d6026913960400191505060405180910390fd5b8073ffffffffffffffffffffffffffffffffffffffff16600660009054906101000a900473ffffffffffffffffffffffffffffffffffffffff1673ffffffffffffffffffffffffffffffffffffffff167f8be0079c531659141344cd1fd0a4f28419497f9722a3daafe3b4186f6b6457e060405160405180910390a380600660006101000a81548173ffffffffffffffffffffffffffffffffffffffff021916908373ffffffffffffffffffffffffffffffffffffffff16021790555050565b6000806000601160008573ffffffffffffffffffffffffffffffffffffffff1673ffffffffffffffffffffffffffffffffffffffff16815260200190815260200160002060009054906101000a900467ffffffffffffffff1667ffffffffffffffff16141561240d57600f60019054906101000a900467ffffffffffffffff16905082601060008367ffffffffffffffff1667ffffffffffffffff16815260200190815260200160002060006101000a81548173ffffffffffffffffffffffffffffffffffffffff021916908373ffffffffffffffffffffffffffffffffffffffff16021790555080601160008573ffffffffffffffffffffffffffffffffffffffff1673ffffffffffffffffffffffffffffffffffffffff16815260200190815260200160002060006101000a81548167ffffffffffffffff021916908367ffffffffffffffff1602179055506123e06001600f60019054906101000a900467ffffffffffffffff1667ffffffffffffffff166127de90919063ffffffff16565b600f60016101000a81548167ffffffffffffffff021916908367ffffffffffffffff160217905550612464565b601160008473ffffffffffffffffffffffffffffffffffffffff1673ffffffffffffffffffffffffffffffffffffffff16815260200190815260200160002060009054906101000a900467ffffffffffffffff1690505b61246c6131a5565b61247e853063042f2b6560e01b61287a565b90506125646040518060400160405280600381526020017f636964000000000000000000000000000000000000000000000000000000000081525060098054600181600116156101000203166002900480601f01602080910402602001604051908101604052809291908181526020018280546001816001161561010002031660029004801561254f5780601f106125245761010080835404028352916020019161254f565b820191906000526020600020905b81548152906001019060200180831161253257829003601f168201915b5050505050836128ab9092919063ffffffff16565b6125b86040518060400160405280600681526020017f75736572496400000000000000000000000000000000000000000000000000008152508367ffffffffffffffff16836128de9092919063ffffffff16565b6126046040518060400160405280600a81526020017f63616d706169676e496400000000000000000000000000000000000000000000815250600a54836128de9092919063ffffffff16565b61261086826000612911565b925050509392505050565b60116020528060005260406000206000915054906101000a900467ffffffffffffffff1681565b600760009054906101000a900473ffffffffffffffffffffffffffffffffffffffff1681565b600033905090565b6000600260009054906101000a900473ffffffffffffffffffffffffffffffffffffffff16905090565b60006005600086815260200190815260200160002060009054906101000a900473ffffffffffffffffffffffffffffffffffffffff1690506005600086815260200190815260200160002060006101000a81549073ffffffffffffffffffffffffffffffffffffffff0219169055847fe1fe3afa0f7f761ff0a8b89086790efd5140d2907ebd5b7ff6bfcb5e075fd4c560405160405180910390a28073ffffffffffffffffffffffffffffffffffffffff16636ee4d553868686866040518563ffffffff1660e01b815260040180858152602001848152602001837bffffffffffffffffffffffffffffffffffffffffffffffffffffffff19168152602001828152602001945050505050600060405180830381600087803b1580156127bf57600080fd5b505af11580156127d3573d6000803e3d6000fd5b505050505050505050565b60008082840190508367ffffffffffffffff168167ffffffffffffffff161015612870576040517f08c379a000000000000000000000000000000000000000000000000000000000815260040180806020018281038252601b8152602001807f536166654d6174683a206164646974696f6e206f766572666c6f77000000000081525060200191505060405180910390fd5b8091505092915050565b6128826131a5565b61288a6131a5565b6128a185858584612b9a909392919063ffffffff16565b9150509392505050565b6128c2828460800151612c4a90919063ffffffff16565b6128d9818460800151612c4a90919063ffffffff16565b505050565b6128f5828460800151612c4a90919063ffffffff16565b61290c818460800151612c6f90919063ffffffff16565b505050565b600030600454604051602001808373ffffffffffffffffffffffffffffffffffffffff1660601b815260140182815260200192505050604051602081830303815290604052805190602001209050600454836060018181525050836005600083815260200190815260200160002060006101000a81548173ffffffffffffffffffffffffffffffffffffffff021916908373ffffffffffffffffffffffffffffffffffffffff160217905550807fb5e6e01e79f91267dc17b4e6314d5d4d03593d2ceee0fbb452b750bd70ea5af960405160405180910390a2600260009054906101000a900473ffffffffffffffffffffffffffffffffffffffff1673ffffffffffffffffffffffffffffffffffffffff16634000aea08584612a3387612c7f565b6040518463ffffffff1660e01b8152600401808473ffffffffffffffffffffffffffffffffffffffff16815260200183815260200180602001828103825283818151815260200191508051906020019080838360005b83811015612aa4578082015181840152602081019050612a89565b50505050905090810190601f168015612ad15780820380516001836020036101000a031916815260200191505b50945050505050602060405180830381600087803b158015612af257600080fd5b505af1158015612b06573d6000803e3d6000fd5b505050506040513d6020811015612b1c57600080fd5b8101908080519060200190929190505050612b82576040517f08c379a00000000000000000000000000000000000000000000000000000000081526004018080602001828103825260238152602001806132536023913960400191505060405180910390fd5b60016004600082825401925050819055509392505050565b612ba26131a5565b612bb28560800151610100612e00565b508385600001818152505082856020019073ffffffffffffffffffffffffffffffffffffffff16908173ffffffffffffffffffffffffffffffffffffffff16815250508185604001907bffffffffffffffffffffffffffffffffffffffffffffffffffffffff191690817bffffffffffffffffffffffffffffffffffffffffffffffffffffffff191681525050849050949350505050565b612c578260038351612e54565b612c6a8183612f9990919063ffffffff16565b505050565b612c7b82600083612e54565b5050565b6060634042994660e01b60008084600001518560200151866040015187606001516001896080015160000151604051602401808973ffffffffffffffffffffffffffffffffffffffff1681526020018881526020018781526020018673ffffffffffffffffffffffffffffffffffffffff168152602001857bffffffffffffffffffffffffffffffffffffffffffffffffffffffff1916815260200184815260200183815260200180602001828103825283818151815260200191508051906020019080838360005b83811015612d63578082015181840152602081019050612d48565b50505050905090810190601f168015612d905780820380516001836020036101000a031916815260200191505b509950505050505050505050604051602081830303815290604052907bffffffffffffffffffffffffffffffffffffffffffffffffffffffff19166020820180517bffffffffffffffffffffffffffffffffffffffffffffffffffffffff83818316178352505050509050919050565b612e08613212565b600060208381612e1457fe5b0614612e2d5760208281612e2457fe5b06602003820191505b81836020018181525050604051808452600081528281016020016040525082905092915050565b60178111612e8157612e7b8160058460ff16901b60ff161784612fbb90919063ffffffff16565b50612f94565b60ff8111612ec357612ea6601860058460ff16901b1784612fbb90919063ffffffff16565b50612ebd81600185612fdb9092919063ffffffff16565b50612f93565b61ffff8111612f0657612ee9601960058460ff16901b1784612fbb90919063ffffffff16565b50612f0081600285612fdb9092919063ffffffff16565b50612f92565b63ffffffff8111612f4b57612f2e601a60058460ff16901b1784612fbb90919063ffffffff16565b50612f4581600485612fdb9092919063ffffffff16565b50612f91565b67ffffffffffffffff8111612f9057612f77601b60058460ff16901b1784612fbb90919063ffffffff16565b50612f8e81600885612fdb9092919063ffffffff16565b505b5b5b5b5b505050565b612fa1613212565b612fb383846000015151848551612ffd565b905092915050565b612fc3613212565b612fd383846000015151846130b6565b905092915050565b612fe3613212565b612ff4848560000151518585613104565b90509392505050565b613005613212565b825182111561301357600080fd5b8460200151828501111561303e5761303d8560026130378860200151888701613165565b02613181565b5b60008086518051876020830101935080888701111561305d5787860182525b60208701925050505b602084106130895780518252602082019150602081019050602084039350613066565b60006001856020036101000a03905080198251168184511681811785525050879350505050949350505050565b6130be613212565b836020015183106130db576130da846002866020015102613181565b5b83518051602085830101848153818614156130f7576001820183525b5050508390509392505050565b61310c613212565b8460200151848301111561312a5761312985600286850102613181565b5b60006001836101000a03905085518386820101858319825116178152815185880111156131575784870182525b505085915050949350505050565b6000818311156131775782905061317b565b8190505b92915050565b6060826000015190506131948383612e00565b5061319f8382612f99565b50505050565b6040518060a0016040528060008019168152602001600073ffffffffffffffffffffffffffffffffffffffff16815260200160007bffffffffffffffffffffffffffffffffffffffffffffffffffffffff191681526020016000815260200161320c613212565b81525090565b60405180604001604052806060815260200160008152509056fe4f776e61626c653a206e6577206f776e657220697320746865207a65726f2061646472657373756e61626c6520746f207472616e73666572416e6443616c6c20746f206f7261636c65536f75726365206d75737420626520746865206f7261636c65206f66207468652072657175657374746f416464726573734861736820616e642068617368206f6620746f206164647265737320617265206e6f74206d617463686564a2646970667358221220073aa2a998da733198dbbc63d2464b5bdfda89c93619c65e9420b5124ab00dca64736f6c634300060c003353746172742064617461206d757374206265206c657373207468616e20656e642064617465546f6b656e20686f6c646572206d757374206d6174636820746f206d73672e73656e646572546f6b656e20616d6f756e74206973206e6f7420656e6f75676820746f2064697374726962757465a2646970667358221220d42a32056e7a116c00852e449e08e8bdf9faf2d9f266acf739643f91f50e97a864736f6c634300060c0033",
  "immutableReferences": {},
  "source": "// SPDX-License-Identifier: UNLICENSED\npragma solidity ^0.6.0;\n\nimport \"../NewInterfaces.sol\";\nimport \"@openzeppelin/contracts/token/ERC20/ERC20.sol\";\nimport \"@chainlink/contracts/src/v0.6/interfaces/LinkTokenInterface.sol\";\nimport \"../NewInterfaces.sol\";\nimport \"../SafeMath64.sol\";\n\ncontract CCTWalletDistributor is DistributorInterface {\n    constructor (string memory _distributorInfoCid, address _link) public\n    DistributorInterface(_distributorInfoCid, _link) {}\n\n    function createCampaign(\n        address payable token,\n        address tokenSender,\n        string memory campaignInfoCid,\n        string memory recipientsCid,\n        uint32 recipientsNum,\n        uint256 startDate,\n        uint256 endDate\n    ) public override {\n        // TODO Update checking tokenSender logic with token issuance phase\n        require(msg.sender == tokenSender, \"Token holder must match to msg.sender\");\n        uint256 allowance = getAllowanceOf(token, tokenSender);\n        require(allowance > 0, \"No token is approved to transfer\");\n        require(allowance >= recipientsNum, \"Token amount is not enough to distribute\");\n\n        uint256 claimAmount = calculateClaimAmount(allowance, recipientsNum);\n        CCTWalletCampaign campaign = new CCTWalletCampaign(\n            token,\n            campaignInfoCid,\n            recipientsCid,\n            nextCampaignId,\n            claimAmount,\n            tokenSender,\n            startDate,\n            endDate,\n            link\n        );\n        transferToken(token, tokenSender, address(campaign), allowance);\n        campaignList[nextCampaignId] = address(campaign);\n        nextCampaignId = nextCampaignId.add(1);\n        campaign.transferOwnership(msg.sender);\n\n        emit CreateCampaign(\n            address(campaign),\n            token,\n            msg.sender\n        );\n    }\n}\n\ncontract CCTWalletCampaign is CampaignInterface {\n    using SafeMath64 for uint64;\n\n    uint64 public nextUserId = 1;\n    mapping(uint64 => address) public userList;\n    mapping(address => uint64) public userIdList;\n    mapping(address => bool) public claimedUserList;\n    mapping(bytes32 => bool) private claimKeyHashList;\n    mapping(address => bool) public sentUserList;\n\n    // TODO Integrate with parent constructor\n    constructor(\n        address payable _token,\n        string memory _campaignInfoCid,\n        string memory _recipientsCid,\n        uint256 _campaignId,\n        uint256 _claimAmount,\n        address _refundDestination,\n        uint256 _startDate,\n        uint256 _endDate,\n        address _link\n    ) public CampaignInterface(\n        _token,\n        _campaignInfoCid,\n        _recipientsCid,\n        _campaignId,\n        _claimAmount,\n        _refundDestination,\n        _startDate,\n        _endDate,\n        _link\n    ) {}\n\n    modifier isValidHashAndSignature(\n        bytes32 toAddressHash,\n        bytes32 r,\n        bytes32 s,\n        uint8 v,\n        address from,\n        address to\n    ) {\n        require(\n            toAddressHash == keccak256(abi.encodePacked(to)),\n            \"toAddressHash and hash of to address are not matched\"\n        );\n\n        if (v < 27) {\n            v += 27;\n        }\n        bytes memory prefix = \"\\x19Ethereum Signed Message:\\n32\";\n        bytes32 prefixedProof = keccak256(abi.encodePacked(prefix, toAddressHash));\n        address _from = ecrecover(prefixedProof, v, r, s);\n        require(address(0) != _from, \"address is 0\");\n        require(from == _from, \"from address is not matched\");\n\n        _;\n    }\n\n    function generateClaimKey(uint64 userId) public pure returns (uint256){\n        return uint256(userId) * 10 + 1;\n        // 1 as true\n    }\n\n    function isClaimable(address from, address to) public view returns (bool) {\n        uint64 userId = userIdList[from];\n        if (userId == 0) {\n            return false;\n        }\n        if (claimedUserList[from]) {\n            return false;\n        }\n        if (sentUserList[to]) {\n            return false;\n        }\n        uint256 claimKey = generateClaimKey(userId);\n        bytes32 claimKeyHash = keccak256(abi.encodePacked(claimKey));\n        return claimKeyHashList[claimKeyHash];\n    }\n\n    function claim(\n        bytes32 toAddressHash,\n        bytes32 r,\n        bytes32 s,\n        uint8 v,\n        address from,\n        address to\n    )\n    external\n    mustBeActive\n    inTime\n    isValidHashAndSignature(toAddressHash, r, s, v, from, to)\n    {\n        require(isClaimable(from, to), \"Token is not claimable\");\n\n        claimedUserList[from] = true;\n        sentUserList[to] = true;\n        ERC20 erc20 = ERC20(token);\n        erc20.transfer(to, claimAmount);\n\n        emit Claim(from, to);\n    }\n\n    function fulfill(bytes32 _requestId, bytes32 data) public recordChainlinkFulfillment(_requestId) {\n        claimKeyHashList[data] = true;\n    }\n\n    /**\n     * @notice Request to Chainlink whether target address is claimable token\n     * Target address usually has no ETH, so another wallet send this function for target address\n     */\n    function requestCheckingIsClaimable(\n        address _oracle,\n        bytes32 _jobId,\n        address targetAddress\n    ) external returns (bytes32 requestId) {\n        uint64 userId;\n        if (userIdList[targetAddress] == 0) {\n            userId = nextUserId;\n            userList[userId] = targetAddress;\n            userIdList[targetAddress] = userId;\n            nextUserId = nextUserId.add(1);\n        } else {\n            userId = userIdList[targetAddress];\n        }\n\n        Chainlink.Request memory request = buildChainlinkRequest(_jobId, address(this), this.fulfill.selector);\n        request.add(\"cid\", recipientsCid);\n        request.addUint(\"userId\", userId);\n        request.addUint(\"campaignId\", campaignId);\n\n        return sendChainlinkRequestTo(_oracle, request, 0);\n    }\n\n    /**\n     * @notice Allows the owner to withdraw any LINK balance on the contract\n     */\n    function withdrawLink() public onlyOwner {\n        LinkTokenInterface link = LinkTokenInterface(chainlinkTokenAddress());\n        require(link.transfer(msg.sender, link.balanceOf(address(this))), \"Unable to transfer\");\n    }\n\n    /**\n     * @notice Call this method if no response is received within 5 minutes\n     * @param _requestId The ID that was generated for the request to cancel\n     * @param _payment The payment specified for the request to cancel\n     * @param _callbackFunctionId The bytes4 callback function ID specified for\n     * the request to cancel\n     * @param _expiration The expiration generated for the request to cancel\n     */\n    function cancelRequest(\n        bytes32 _requestId,\n        uint256 _payment,\n        bytes4 _callbackFunctionId,\n        uint256 _expiration\n    // TODO Consider about onlyOwner for operation cost\n    ) public onlyOwner {\n        cancelChainlinkRequest(_requestId, _payment, _callbackFunctionId, _expiration);\n    }\n}\n",
  "sourcePath": "/Users/wildmouse/ghq/github.com/TART-tokyo/iroiro/contract/contracts/distributors/CCTWallet.sol",
  "compiler": {
    "name": "solc",
    "version": "0.6.12+commit.27d51765.Emscripten.clang"
  },
  "schemaVersion": "3.3.2",
  "updatedAt": "2020-12-17T08:36:51.988Z",
  "networkType": "ethereum",
  "devdoc": {
    "kind": "dev",
    "methods": {},
    "version": 1
  },
  "userdoc": {
    "kind": "user",
    "methods": {},
    "version": 1
  }
}