{
  "contractName": "UUIDNFTDistributor",
  "abi": [
    {
      "inputs": [
        {
          "internalType": "string",
          "name": "_distributorInfoCid",
          "type": "string"
        },
        {
          "internalType": "string",
          "name": "uri",
          "type": "string"
        }
      ],
      "stateMutability": "nonpayable",
      "type": "constructor"
    },
    {
      "anonymous": false,
      "inputs": [
        {
          "indexed": true,
          "internalType": "address",
          "name": "account",
          "type": "address"
        },
        {
          "indexed": true,
          "internalType": "address",
          "name": "operator",
          "type": "address"
        },
        {
          "indexed": false,
          "internalType": "bool",
          "name": "approved",
          "type": "bool"
        }
      ],
      "name": "ApprovalForAll",
      "type": "event"
    },
    {
      "anonymous": false,
      "inputs": [
        {
          "indexed": true,
          "internalType": "uint256",
          "name": "treeId",
          "type": "uint256"
        },
        {
          "indexed": true,
          "internalType": "address",
          "name": "creator",
          "type": "address"
        },
        {
          "indexed": false,
          "internalType": "string",
          "name": "merkleTreeCid",
          "type": "string"
        },
        {
          "indexed": false,
          "internalType": "string",
          "name": "nftMetadataCid",
          "type": "string"
        }
      ],
      "name": "CreateCampaign",
      "type": "event"
    },
    {
      "anonymous": false,
      "inputs": [
        {
          "indexed": true,
          "internalType": "address",
          "name": "previousOwner",
          "type": "address"
        },
        {
          "indexed": true,
          "internalType": "address",
          "name": "newOwner",
          "type": "address"
        }
      ],
      "name": "OwnershipTransferred",
      "type": "event"
    },
    {
      "anonymous": false,
      "inputs": [
        {
          "indexed": true,
          "internalType": "address",
          "name": "operator",
          "type": "address"
        },
        {
          "indexed": true,
          "internalType": "address",
          "name": "from",
          "type": "address"
        },
        {
          "indexed": true,
          "internalType": "address",
          "name": "to",
          "type": "address"
        },
        {
          "indexed": false,
          "internalType": "uint256[]",
          "name": "ids",
          "type": "uint256[]"
        },
        {
          "indexed": false,
          "internalType": "uint256[]",
          "name": "values",
          "type": "uint256[]"
        }
      ],
      "name": "TransferBatch",
      "type": "event"
    },
    {
      "anonymous": false,
      "inputs": [
        {
          "indexed": true,
          "internalType": "address",
          "name": "operator",
          "type": "address"
        },
        {
          "indexed": true,
          "internalType": "address",
          "name": "from",
          "type": "address"
        },
        {
          "indexed": true,
          "internalType": "address",
          "name": "to",
          "type": "address"
        },
        {
          "indexed": false,
          "internalType": "uint256",
          "name": "id",
          "type": "uint256"
        },
        {
          "indexed": false,
          "internalType": "uint256",
          "name": "value",
          "type": "uint256"
        }
      ],
      "name": "TransferSingle",
      "type": "event"
    },
    {
      "anonymous": false,
      "inputs": [
        {
          "indexed": false,
          "internalType": "string",
          "name": "value",
          "type": "string"
        },
        {
          "indexed": true,
          "internalType": "uint256",
          "name": "id",
          "type": "uint256"
        }
      ],
      "name": "URI",
      "type": "event"
    },
    {
      "anonymous": false,
      "inputs": [
        {
          "indexed": false,
          "internalType": "string",
          "name": "cid",
          "type": "string"
        }
      ],
      "name": "UpdateDistributorInfo",
      "type": "event"
    },
    {
      "inputs": [
        {
          "internalType": "bytes32",
          "name": "newMerkleRoot",
          "type": "bytes32"
        }
      ],
      "name": "addTree",
      "outputs": [],
      "stateMutability": "nonpayable",
      "type": "function"
    },
    {
      "inputs": [
        {
          "internalType": "address",
          "name": "account",
          "type": "address"
        },
        {
          "internalType": "uint256",
          "name": "id",
          "type": "uint256"
        }
      ],
      "name": "balanceOf",
      "outputs": [
        {
          "internalType": "uint256",
          "name": "",
          "type": "uint256"
        }
      ],
      "stateMutability": "view",
      "type": "function",
      "constant": true
    },
    {
      "inputs": [
        {
          "internalType": "address[]",
          "name": "accounts",
          "type": "address[]"
        },
        {
          "internalType": "uint256[]",
          "name": "ids",
          "type": "uint256[]"
        }
      ],
      "name": "balanceOfBatch",
      "outputs": [
        {
          "internalType": "uint256[]",
          "name": "",
          "type": "uint256[]"
        }
      ],
      "stateMutability": "view",
      "type": "function",
      "constant": true
    },
    {
      "inputs": [
        {
          "internalType": "address",
          "name": "account",
          "type": "address"
        },
        {
          "internalType": "address",
          "name": "operator",
          "type": "address"
        }
      ],
      "name": "isApprovedForAll",
      "outputs": [
        {
          "internalType": "bool",
          "name": "",
          "type": "bool"
        }
      ],
      "stateMutability": "view",
      "type": "function",
      "constant": true
    },
    {
      "inputs": [
        {
          "internalType": "uint256",
          "name": "treeId",
          "type": "uint256"
        },
        {
          "internalType": "uint256",
          "name": "index",
          "type": "uint256"
        }
      ],
      "name": "isProven",
      "outputs": [
        {
          "internalType": "bool",
          "name": "",
          "type": "bool"
        }
      ],
      "stateMutability": "view",
      "type": "function",
      "constant": true
    },
    {
      "inputs": [
        {
          "internalType": "uint256",
          "name": "tokenId",
          "type": "uint256"
        }
      ],
      "name": "merkleRoot",
      "outputs": [
        {
          "internalType": "bytes32",
          "name": "",
          "type": "bytes32"
        }
      ],
      "stateMutability": "view",
      "type": "function",
      "constant": true
    },
    {
      "inputs": [
        {
          "internalType": "uint256",
          "name": "",
          "type": "uint256"
        }
      ],
      "name": "merkleRootMap",
      "outputs": [
        {
          "internalType": "bytes32",
          "name": "",
          "type": "bytes32"
        }
      ],
      "stateMutability": "view",
      "type": "function",
      "constant": true
    },
    {
      "inputs": [],
      "name": "nextTreeId",
      "outputs": [
        {
          "internalType": "uint256",
          "name": "",
          "type": "uint256"
        }
      ],
      "stateMutability": "view",
      "type": "function",
      "constant": true
    },
    {
      "inputs": [],
      "name": "owner",
      "outputs": [
        {
          "internalType": "address",
          "name": "",
          "type": "address"
        }
      ],
      "stateMutability": "view",
      "type": "function",
      "constant": true
    },
    {
      "inputs": [
        {
          "internalType": "uint256",
          "name": "treeId",
          "type": "uint256"
        },
        {
          "internalType": "uint256",
          "name": "index",
          "type": "uint256"
        },
        {
          "internalType": "string",
          "name": "target",
          "type": "string"
        },
        {
          "internalType": "uint256",
          "name": "amount",
          "type": "uint256"
        },
        {
          "internalType": "bytes32[]",
          "name": "merkleProof",
          "type": "bytes32[]"
        }
      ],
      "name": "proof",
      "outputs": [
        {
          "internalType": "bool",
          "name": "",
          "type": "bool"
        }
      ],
      "stateMutability": "nonpayable",
      "type": "function"
    },
    {
      "inputs": [],
      "name": "renounceOwnership",
      "outputs": [],
      "stateMutability": "nonpayable",
      "type": "function"
    },
    {
      "inputs": [
        {
          "internalType": "address",
          "name": "from",
          "type": "address"
        },
        {
          "internalType": "address",
          "name": "to",
          "type": "address"
        },
        {
          "internalType": "uint256[]",
          "name": "ids",
          "type": "uint256[]"
        },
        {
          "internalType": "uint256[]",
          "name": "amounts",
          "type": "uint256[]"
        },
        {
          "internalType": "bytes",
          "name": "data",
          "type": "bytes"
        }
      ],
      "name": "safeBatchTransferFrom",
      "outputs": [],
      "stateMutability": "nonpayable",
      "type": "function"
    },
    {
      "inputs": [
        {
          "internalType": "address",
          "name": "from",
          "type": "address"
        },
        {
          "internalType": "address",
          "name": "to",
          "type": "address"
        },
        {
          "internalType": "uint256",
          "name": "id",
          "type": "uint256"
        },
        {
          "internalType": "uint256",
          "name": "amount",
          "type": "uint256"
        },
        {
          "internalType": "bytes",
          "name": "data",
          "type": "bytes"
        }
      ],
      "name": "safeTransferFrom",
      "outputs": [],
      "stateMutability": "nonpayable",
      "type": "function"
    },
    {
      "inputs": [
        {
          "internalType": "address",
          "name": "operator",
          "type": "address"
        },
        {
          "internalType": "bool",
          "name": "approved",
          "type": "bool"
        }
      ],
      "name": "setApprovalForAll",
      "outputs": [],
      "stateMutability": "nonpayable",
      "type": "function"
    },
    {
      "inputs": [
        {
          "internalType": "string",
          "name": "newURI",
          "type": "string"
        }
      ],
      "name": "setURI",
      "outputs": [],
      "stateMutability": "nonpayable",
      "type": "function"
    },
    {
      "inputs": [
        {
          "internalType": "bytes4",
          "name": "interfaceId",
          "type": "bytes4"
        }
      ],
      "name": "supportsInterface",
      "outputs": [
        {
          "internalType": "bool",
          "name": "",
          "type": "bool"
        }
      ],
      "stateMutability": "view",
      "type": "function",
      "constant": true
    },
    {
      "inputs": [
        {
          "internalType": "address",
          "name": "newOwner",
          "type": "address"
        }
      ],
      "name": "transferOwnership",
      "outputs": [],
      "stateMutability": "nonpayable",
      "type": "function"
    },
    {
      "inputs": [
        {
          "internalType": "string",
          "name": "distributorInfoCid",
          "type": "string"
        }
      ],
      "name": "updateDistributorInfo",
      "outputs": [],
      "stateMutability": "nonpayable",
      "type": "function"
    },
    {
      "inputs": [
        {
          "internalType": "uint256",
          "name": "tokenId",
          "type": "uint256"
        }
      ],
      "name": "uri",
      "outputs": [
        {
          "internalType": "string",
          "name": "",
          "type": "string"
        }
      ],
      "stateMutability": "view",
      "type": "function",
      "constant": true
    },
    {
      "inputs": [
        {
          "internalType": "bytes32",
          "name": "merkleRoot",
          "type": "bytes32"
        },
        {
          "internalType": "string",
          "name": "merkleTreeCid",
          "type": "string"
        },
        {
          "internalType": "string",
          "name": "nftMetadataCid",
          "type": "string"
        }
      ],
      "name": "createCampaign",
      "outputs": [],
      "stateMutability": "nonpayable",
      "type": "function"
    },
    {
      "inputs": [
        {
          "internalType": "uint256",
          "name": "treeId",
          "type": "uint256"
        },
        {
          "internalType": "uint256",
          "name": "index",
          "type": "uint256"
        },
        {
          "internalType": "string",
          "name": "target",
          "type": "string"
        },
        {
          "internalType": "bytes32[]",
          "name": "merkleProof",
          "type": "bytes32[]"
        }
      ],
      "name": "claim",
      "outputs": [],
      "stateMutability": "nonpayable",
      "type": "function"
    }
  ],
  "bytecode": "0x608060405260016006553480156200001657600080fd5b5060405162003a2d38038062003a2d833981810160405260408110156200003c57600080fd5b81019080805160405193929190846401000000008211156200005d57600080fd5b838201915060208201858111156200007457600080fd5b82518660018202830111640100000000821117156200009257600080fd5b8083526020830192505050908051906020019080838360005b83811015620000c8578082015181840152602081019050620000ab565b50505050905090810190601f168015620000f65780820380516001836020036101000a031916815260200191505b50604052602001805160405193929190846401000000008211156200011a57600080fd5b838201915060208201858111156200013157600080fd5b82518660018202830111640100000000821117156200014f57600080fd5b8083526020830192505050908051906020019080838360005b838110156200018557808201518184015260208101905062000168565b50505050905090810190601f168015620001b35780820380516001836020036101000a031916815260200191505b50604052505050818160405180602001604052806000815250620001e46301ffc9a760e01b6200039960201b60201c565b620001f581620004a260201b60201c565b6200020d63d9b67a2660e01b6200039960201b60201c565b62000225630e89341c60e01b6200039960201b60201c565b50600062000238620004be60201b60201c565b905080600460006101000a81548173ffffffffffffffffffffffffffffffffffffffff021916908373ffffffffffffffffffffffffffffffffffffffff1602179055508073ffffffffffffffffffffffffffffffffffffffff16600073ffffffffffffffffffffffffffffffffffffffff167f8be0079c531659141344cd1fd0a4f28419497f9722a3daafe3b4186f6b6457e060405160405180910390a3508060059080519060200190620002ef929190620004c6565b507f1e54e07388f827c88e88d724fc81b174a902ab48e8703c3cc30a38b221b83fae826040518080602001828103825283818151815260200191508051906020019080838360005b838110156200035457808201518184015260208101905062000337565b50505050905090810190601f168015620003825780820380516001836020036101000a031916815260200191505b509250505060405180910390a1505050506200057c565b63ffffffff60e01b817bffffffffffffffffffffffffffffffffffffffffffffffffffffffff1916141562000436576040517f08c379a000000000000000000000000000000000000000000000000000000000815260040180806020018281038252601c8152602001807f4552433136353a20696e76616c696420696e746572666163652069640000000081525060200191505060405180910390fd5b6001600080837bffffffffffffffffffffffffffffffffffffffffffffffffffffffff19167bffffffffffffffffffffffffffffffffffffffffffffffffffffffff1916815260200190815260200160002060006101000a81548160ff02191690831515021790555050565b8060039080519060200190620004ba929190620004c6565b5050565b600033905090565b828054600181600116156101000203166002900490600052602060002090601f016020900481019282620004fe57600085556200054a565b82601f106200051957805160ff19168380011785556200054a565b828001600101855582156200054a579182015b82811115620005495782518255916020019190600101906200052c565b5b5090506200055991906200055d565b5090565b5b80821115620005785760008160009055506001016200055e565b5090565b6134a1806200058c6000396000f3fe608060405234801561001057600080fd5b50600436106101365760003560e01c80634e64c504116100b85780638da5cb5b1161007c5780638da5cb5b14610b23578063a22cb46514610b57578063d799160f14610ba7578063e985e9c514610bc5578063f242432a14610c3f578063f2fde38b14610d4e57610136565b80634e64c5041461092e578063587d9106146109705780635fdeeee314610a72578063693d0d7814610aeb578063715018a614610b1957610136565b8063238db46b116100ff578063238db46b146104025780632eb2c2d6146104da5780633c70b357146106fd57806344bcce731461073f5780634e1273f41461078d57610136565b8062fdd58e1461013b57806301ffc9a71461019d57806302fe5305146102005780630e89341c146102795780630f49afb214610320575b600080fd5b6101876004803603604081101561015157600080fd5b81019080803573ffffffffffffffffffffffffffffffffffffffff16906020019092919080359060200190929190505050610d92565b6040518082815260200191505060405180910390f35b6101e8600480360360208110156101b357600080fd5b8101908080357bffffffffffffffffffffffffffffffffffffffffffffffffffffffff19169060200190929190505050610e72565b60405180821515815260200191505060405180910390f35b6102776004803603602081101561021657600080fd5b810190808035906020019064010000000081111561023357600080fd5b82018360208201111561024557600080fd5b8035906020019184600183028401116401000000008311171561026757600080fd5b9091929391929390505050610ed9565b005b6102a56004803603602081101561028f57600080fd5b8101908080359060200190929190505050610f9e565b6040518080602001828103825283818151815260200191508051906020019080838360005b838110156102e55780820151818401526020810190506102ca565b50505050905090810190601f1680156103125780820380516001836020036101000a031916815260200191505b509250505060405180910390f35b6104006004803603608081101561033657600080fd5b8101908080359060200190929190803590602001909291908035906020019064010000000081111561036757600080fd5b82018360208201111561037957600080fd5b8035906020019184600183028401116401000000008311171561039b57600080fd5b9091929391929390803590602001906401000000008111156103bc57600080fd5b8201836020820111156103ce57600080fd5b803590602001918460208302840111640100000000831117156103f057600080fd5b9091929391929390505050611076565b005b6104d86004803603606081101561041857600080fd5b81019080803590602001909291908035906020019064010000000081111561043f57600080fd5b82018360208201111561045157600080fd5b8035906020019184600183028401116401000000008311171561047357600080fd5b90919293919293908035906020019064010000000081111561049457600080fd5b8201836020820111156104a657600080fd5b803590602001918460018302840111640100000000831117156104c857600080fd5b90919293919293905050506110b3565b005b6106fb600480360360a08110156104f057600080fd5b81019080803573ffffffffffffffffffffffffffffffffffffffff169060200190929190803573ffffffffffffffffffffffffffffffffffffffff1690602001909291908035906020019064010000000081111561054d57600080fd5b82018360208201111561055f57600080fd5b8035906020019184602083028401116401000000008311171561058157600080fd5b919080806020026020016040519081016040528093929190818152602001838360200280828437600081840152601f19601f820116905080830192505050505050509192919290803590602001906401000000008111156105e157600080fd5b8201836020820111156105f357600080fd5b8035906020019184602083028401116401000000008311171561061557600080fd5b919080806020026020016040519081016040528093929190818152602001838360200280828437600081840152601f19601f8201169050808301925050505050505091929192908035906020019064010000000081111561067557600080fd5b82018360208201111561068757600080fd5b803590602001918460018302840111640100000000831117156106a957600080fd5b91908080601f016020809104026020016040519081016040528093929190818152602001838380828437600081840152601f19601f820116905080830192505050505050509192919290505050611174565b005b6107296004803603602081101561071357600080fd5b81019080803590602001909291905050506115ff565b6040518082815260200191505060405180910390f35b6107756004803603604081101561075557600080fd5b81019080803590602001909291908035906020019092919050505061161c565b60405180821515815260200191505060405180910390f35b6108d7600480360360408110156107a357600080fd5b81019080803590602001906401000000008111156107c057600080fd5b8201836020820111156107d257600080fd5b803590602001918460208302840111640100000000831117156107f457600080fd5b919080806020026020016040519081016040528093929190818152602001838360200280828437600081840152601f19601f8201169050808301925050505050505091929192908035906020019064010000000081111561085457600080fd5b82018360208201111561086657600080fd5b8035906020019184602083028401116401000000008311171561088857600080fd5b919080806020026020016040519081016040528093929190818152602001838360200280828437600081840152601f19601f820116905080830192505050505050509192919290505050611680565b6040518080602001828103825283818151815260200191508051906020019060200280838360005b8381101561091a5780820151818401526020810190506108ff565b505050509050019250505060405180910390f35b61095a6004803603602081101561094457600080fd5b8101908080359060200190929190505050611792565b6040518082815260200191505060405180910390f35b610a5a600480360360a081101561098657600080fd5b810190808035906020019092919080359060200190929190803590602001906401000000008111156109b757600080fd5b8201836020820111156109c957600080fd5b803590602001918460018302840111640100000000831117156109eb57600080fd5b90919293919293908035906020019092919080359060200190640100000000811115610a1657600080fd5b820183602082011115610a2857600080fd5b80359060200191846020830284011164010000000083111715610a4a57600080fd5b90919293919293905050506117aa565b60405180821515815260200191505060405180910390f35b610ae960048036036020811015610a8857600080fd5b8101908080359060200190640100000000811115610aa557600080fd5b820183602082011115610ab757600080fd5b80359060200191846001830284011164010000000083111715610ad957600080fd5b909192939192939050505061198a565b005b610b1760048036036020811015610b0157600080fd5b8101908080359060200190929190505050611aa0565b005b610b21611ad9565b005b610b2b611c49565b604051808273ffffffffffffffffffffffffffffffffffffffff16815260200191505060405180910390f35b610ba560048036036040811015610b6d57600080fd5b81019080803573ffffffffffffffffffffffffffffffffffffffff169060200190929190803515159060200190929190505050611c73565b005b610baf611e0c565b6040518082815260200191505060405180910390f35b610c2760048036036040811015610bdb57600080fd5b81019080803573ffffffffffffffffffffffffffffffffffffffff169060200190929190803573ffffffffffffffffffffffffffffffffffffffff169060200190929190505050611e12565b60405180821515815260200191505060405180910390f35b610d4c600480360360a0811015610c5557600080fd5b81019080803573ffffffffffffffffffffffffffffffffffffffff169060200190929190803573ffffffffffffffffffffffffffffffffffffffff169060200190929190803590602001909291908035906020019092919080359060200190640100000000811115610cc657600080fd5b820183602082011115610cd857600080fd5b80359060200191846001830284011164010000000083111715610cfa57600080fd5b91908080601f016020809104026020016040519081016040528093929190818152602001838380828437600081840152601f19601f820116905080830192505050505050509192919290505050611ea6565b005b610d9060048036036020811015610d6457600080fd5b81019080803573ffffffffffffffffffffffffffffffffffffffff16906020019092919050505061221b565b005b60008073ffffffffffffffffffffffffffffffffffffffff168373ffffffffffffffffffffffffffffffffffffffff161415610e19576040517f08c379a000000000000000000000000000000000000000000000000000000000815260040180806020018281038252602b8152602001806132d6602b913960400191505060405180910390fd5b6001600083815260200190815260200160002060008473ffffffffffffffffffffffffffffffffffffffff1673ffffffffffffffffffffffffffffffffffffffff16815260200190815260200160002054905092915050565b6000806000837bffffffffffffffffffffffffffffffffffffffffffffffffffffffff19167bffffffffffffffffffffffffffffffffffffffffffffffffffffffff1916815260200190815260200160002060009054906101000a900460ff169050919050565b610ee1612410565b73ffffffffffffffffffffffffffffffffffffffff16610eff611c49565b73ffffffffffffffffffffffffffffffffffffffff1614610f88576040517f08c379a00000000000000000000000000000000000000000000000000000000081526004018080602001828103825260208152602001807f4f776e61626c653a2063616c6c6572206973206e6f7420746865206f776e657281525060200191505060405180910390fd5b818160059190610f999291906130fa565b505050565b60606005610fab83612418565b60405160200180838054600181600116156101000203166002900480156110095780601f10610fe7576101008083540402835291820191611009565b820191906000526020600020905b815481529060010190602001808311610ff5575b505082805190602001908083835b6020831061103a5780518252602082019150602081019050602083039250611017565b6001836020036101000a038019825116818451168082178552505050505050905001925050506040516020818303038152906040529050919050565b61108686868686600187876117aa565b61108f57600080fd5b6110ab338760016040518060200160405280600081525061255f565b505050505050565b3373ffffffffffffffffffffffffffffffffffffffff166006547f75543de32d0e346dcc8a0dd14d1631cd5be543ad74cd66a6e13c65e561772981868686866040518080602001806020018381038352878782818152602001925080828437600081840152601f19601f8201169050808301925050508381038252858582818152602001925080828437600081840152601f19601f820116905080830192505050965050505050505060405180910390a361116d85611aa0565b5050505050565b81518351146111ce576040517f08c379a00000000000000000000000000000000000000000000000000000000081526004018080602001828103825260288152602001806134236028913960400191505060405180910390fd5b600073ffffffffffffffffffffffffffffffffffffffff168473ffffffffffffffffffffffffffffffffffffffff161415611254576040517f08c379a00000000000000000000000000000000000000000000000000000000081526004018080602001828103825260258152602001806133506025913960400191505060405180910390fd5b61125c612410565b73ffffffffffffffffffffffffffffffffffffffff168573ffffffffffffffffffffffffffffffffffffffff1614806112a257506112a18561129c612410565b611e12565b5b6112f7576040517f08c379a00000000000000000000000000000000000000000000000000000000081526004018080602001828103825260328152602001806133756032913960400191505060405180910390fd5b6000611301612410565b9050611311818787878787612762565b60005b84518110156114e257600085828151811061132b57fe5b60200260200101519050600085838151811061134357fe5b602002602001015190506113ca816040518060600160405280602a81526020016133a7602a91396001600086815260200190815260200160002060008d73ffffffffffffffffffffffffffffffffffffffff1673ffffffffffffffffffffffffffffffffffffffff1681526020019081526020016000205461276a9092919063ffffffff16565b6001600084815260200190815260200160002060008b73ffffffffffffffffffffffffffffffffffffffff1673ffffffffffffffffffffffffffffffffffffffff16815260200190815260200160002081905550611481816001600085815260200190815260200160002060008b73ffffffffffffffffffffffffffffffffffffffff1673ffffffffffffffffffffffffffffffffffffffff1681526020019081526020016000205461282490919063ffffffff16565b6001600084815260200190815260200160002060008a73ffffffffffffffffffffffffffffffffffffffff1673ffffffffffffffffffffffffffffffffffffffff168152602001908152602001600020819055505050806001019050611314565b508473ffffffffffffffffffffffffffffffffffffffff168673ffffffffffffffffffffffffffffffffffffffff168273ffffffffffffffffffffffffffffffffffffffff167f4a39dc06d4c0dbc64b70af90fd698a233a518aa5d07e595d983b8c0526c8f7fb8787604051808060200180602001838103835285818151815260200191508051906020019060200280838360005b83811015611592578082015181840152602081019050611577565b50505050905001838103825284818151815260200191508051906020019060200280838360005b838110156115d45780820151818401526020810190506115b9565b5050505090500194505050505060405180910390a46115f78187878787876128ac565b505050505050565b600060076000838152602001908152602001600020549050919050565b600080610100838161162a57fe5b0490506000610100848161163a57fe5b06905060006008600087815260200190815260200160002060008481526020019081526020016000205490506000826001901b9050808183161494505050505092915050565b606081518351146116dc576040517f08c379a00000000000000000000000000000000000000000000000000000000081526004018080602001828103825260298152602001806133fa6029913960400191505060405180910390fd5b6000835167ffffffffffffffff811180156116f657600080fd5b506040519080825280602002602001820160405280156117255781602001602082028036833780820191505090505b50905060005b84518110156117875761176485828151811061174357fe5b602002602001015185838151811061175757fe5b6020026020010151610d92565b82828151811061177057fe5b60200260200101818152505080600101905061172b565b508091505092915050565b60076020528060005260406000206000915090505481565b60006117b6888861161c565b15611829576040517f08c379a000000000000000000000000000000000000000000000000000000000815260040180806020018281038252601b8152602001807f4d65726b6c65547265653a20416c72656164792070726f76656e2e000000000081525060200191505060405180910390fd5b6000600760008a81526020019081526020016000205490506000878760405160200180838380828437808301925050509250505060405160208183030381529060405280519060200120905060008982886040516020018084815260200183815260200182815260200193505050506040516020818303038152906040528051906020012090506118fc868680806020026020016040519081016040528093929190818152602001838360200280828437600081840152601f19601f820116905080830192505050505050508483612c3b565b61196e576040517f08c379a000000000000000000000000000000000000000000000000000000000815260040180806020018281038252601a8152602001807f4d65726b6c65547265653a20496e76616c69642070726f6f662e00000000000081525060200191505060405180910390fd5b6119788b8b612cf0565b60019350505050979650505050505050565b611992612410565b73ffffffffffffffffffffffffffffffffffffffff166119b0611c49565b73ffffffffffffffffffffffffffffffffffffffff1614611a39576040517f08c379a00000000000000000000000000000000000000000000000000000000081526004018080602001828103825260208152602001807f4f776e61626c653a2063616c6c6572206973206e6f7420746865206f776e657281525060200191505060405180910390fd5b7f1e54e07388f827c88e88d724fc81b174a902ab48e8703c3cc30a38b221b83fae828260405180806020018281038252848482818152602001925080828437600081840152601f19601f820116905080830192505050935050505060405180910390a15050565b8060076000600654815260200190815260200160002081905550611ad0600160065461282490919063ffffffff16565b60068190555050565b611ae1612410565b73ffffffffffffffffffffffffffffffffffffffff16611aff611c49565b73ffffffffffffffffffffffffffffffffffffffff1614611b88576040517f08c379a00000000000000000000000000000000000000000000000000000000081526004018080602001828103825260208152602001807f4f776e61626c653a2063616c6c6572206973206e6f7420746865206f776e657281525060200191505060405180910390fd5b600073ffffffffffffffffffffffffffffffffffffffff16600460009054906101000a900473ffffffffffffffffffffffffffffffffffffffff1673ffffffffffffffffffffffffffffffffffffffff167f8be0079c531659141344cd1fd0a4f28419497f9722a3daafe3b4186f6b6457e060405160405180910390a36000600460006101000a81548173ffffffffffffffffffffffffffffffffffffffff021916908373ffffffffffffffffffffffffffffffffffffffff160217905550565b6000600460009054906101000a900473ffffffffffffffffffffffffffffffffffffffff16905090565b8173ffffffffffffffffffffffffffffffffffffffff16611c92612410565b73ffffffffffffffffffffffffffffffffffffffff161415611cff576040517f08c379a00000000000000000000000000000000000000000000000000000000081526004018080602001828103825260298152602001806133d16029913960400191505060405180910390fd5b8060026000611d0c612410565b73ffffffffffffffffffffffffffffffffffffffff1673ffffffffffffffffffffffffffffffffffffffff16815260200190815260200160002060008473ffffffffffffffffffffffffffffffffffffffff1673ffffffffffffffffffffffffffffffffffffffff16815260200190815260200160002060006101000a81548160ff0219169083151502179055508173ffffffffffffffffffffffffffffffffffffffff16611db9612410565b73ffffffffffffffffffffffffffffffffffffffff167f17307eab39ab6107e8899845ad3d59bd9653f200f220920489ca2b5937696c318360405180821515815260200191505060405180910390a35050565b60065481565b6000600260008473ffffffffffffffffffffffffffffffffffffffff1673ffffffffffffffffffffffffffffffffffffffff16815260200190815260200160002060008373ffffffffffffffffffffffffffffffffffffffff1673ffffffffffffffffffffffffffffffffffffffff16815260200190815260200160002060009054906101000a900460ff16905092915050565b600073ffffffffffffffffffffffffffffffffffffffff168473ffffffffffffffffffffffffffffffffffffffff161415611f2c576040517f08c379a00000000000000000000000000000000000000000000000000000000081526004018080602001828103825260258152602001806133506025913960400191505060405180910390fd5b611f34612410565b73ffffffffffffffffffffffffffffffffffffffff168573ffffffffffffffffffffffffffffffffffffffff161480611f7a5750611f7985611f74612410565b611e12565b5b611fcf576040517f08c379a00000000000000000000000000000000000000000000000000000000081526004018080602001828103825260298152602001806133276029913960400191505060405180910390fd5b6000611fd9612410565b9050611ff9818787611fea88612d69565b611ff388612d69565b87612762565b612076836040518060600160405280602a81526020016133a7602a91396001600088815260200190815260200160002060008a73ffffffffffffffffffffffffffffffffffffffff1673ffffffffffffffffffffffffffffffffffffffff1681526020019081526020016000205461276a9092919063ffffffff16565b6001600086815260200190815260200160002060008873ffffffffffffffffffffffffffffffffffffffff1673ffffffffffffffffffffffffffffffffffffffff1681526020019081526020016000208190555061212d836001600087815260200190815260200160002060008873ffffffffffffffffffffffffffffffffffffffff1673ffffffffffffffffffffffffffffffffffffffff1681526020019081526020016000205461282490919063ffffffff16565b6001600086815260200190815260200160002060008773ffffffffffffffffffffffffffffffffffffffff1673ffffffffffffffffffffffffffffffffffffffff168152602001908152602001600020819055508473ffffffffffffffffffffffffffffffffffffffff168673ffffffffffffffffffffffffffffffffffffffff168273ffffffffffffffffffffffffffffffffffffffff167fc3d58168c5ae7397731d063d5bbf3d657854427343f4c083240f7aacaa2d0f628787604051808381526020018281526020019250505060405180910390a4612213818787878787612dda565b505050505050565b612223612410565b73ffffffffffffffffffffffffffffffffffffffff16612241611c49565b73ffffffffffffffffffffffffffffffffffffffff16146122ca576040517f08c379a00000000000000000000000000000000000000000000000000000000081526004018080602001828103825260208152602001807f4f776e61626c653a2063616c6c6572206973206e6f7420746865206f776e657281525060200191505060405180910390fd5b600073ffffffffffffffffffffffffffffffffffffffff168173ffffffffffffffffffffffffffffffffffffffff161415612350576040517f08c379a00000000000000000000000000000000000000000000000000000000081526004018080602001828103825260268152602001806133016026913960400191505060405180910390fd5b8073ffffffffffffffffffffffffffffffffffffffff16600460009054906101000a900473ffffffffffffffffffffffffffffffffffffffff1673ffffffffffffffffffffffffffffffffffffffff167f8be0079c531659141344cd1fd0a4f28419497f9722a3daafe3b4186f6b6457e060405160405180910390a380600460006101000a81548173ffffffffffffffffffffffffffffffffffffffff021916908373ffffffffffffffffffffffffffffffffffffffff16021790555050565b600033905090565b60606000821415612460576040518060400160405280600181526020017f3000000000000000000000000000000000000000000000000000000000000000815250905061255a565b600082905060005b6000821461248a578080600101915050600a828161248257fe5b049150612468565b60008167ffffffffffffffff811180156124a357600080fd5b506040519080825280601f01601f1916602001820160405280156124d65781602001600182028036833780820191505090505b50905060006001830390508593505b6000841461255257600a84816124f757fe5b0660300160f81b8282806001900393508151811061251157fe5b60200101907effffffffffffffffffffffffffffffffffffffffffffffffffffffffffffff1916908160001a905350600a848161254a57fe5b0493506124e5565b819450505050505b919050565b600073ffffffffffffffffffffffffffffffffffffffff168473ffffffffffffffffffffffffffffffffffffffff1614156125e5576040517f08c379a000000000000000000000000000000000000000000000000000000000815260040180806020018281038252602181526020018061344b6021913960400191505060405180910390fd5b60006125ef612410565b90506126108160008761260188612d69565b61260a88612d69565b87612762565b612673836001600087815260200190815260200160002060008873ffffffffffffffffffffffffffffffffffffffff1673ffffffffffffffffffffffffffffffffffffffff1681526020019081526020016000205461282490919063ffffffff16565b6001600086815260200190815260200160002060008773ffffffffffffffffffffffffffffffffffffffff1673ffffffffffffffffffffffffffffffffffffffff168152602001908152602001600020819055508473ffffffffffffffffffffffffffffffffffffffff16600073ffffffffffffffffffffffffffffffffffffffff168273ffffffffffffffffffffffffffffffffffffffff167fc3d58168c5ae7397731d063d5bbf3d657854427343f4c083240f7aacaa2d0f628787604051808381526020018281526020019250505060405180910390a461275b81600087878787612dda565b5050505050565b505050505050565b6000838311158290612817576040517f08c379a00000000000000000000000000000000000000000000000000000000081526004018080602001828103825283818151815260200191508051906020019080838360005b838110156127dc5780820151818401526020810190506127c1565b50505050905090810190601f1680156128095780820380516001836020036101000a031916815260200191505b509250505060405180910390fd5b5082840390509392505050565b6000808284019050838110156128a2576040517f08c379a000000000000000000000000000000000000000000000000000000000815260040180806020018281038252601b8152602001807f536166654d6174683a206164646974696f6e206f766572666c6f77000000000081525060200191505060405180910390fd5b8091505092915050565b6128cb8473ffffffffffffffffffffffffffffffffffffffff166130e7565b15612c33578373ffffffffffffffffffffffffffffffffffffffff1663bc197c8187878686866040518663ffffffff1660e01b8152600401808673ffffffffffffffffffffffffffffffffffffffff1681526020018573ffffffffffffffffffffffffffffffffffffffff168152602001806020018060200180602001848103845287818151815260200191508051906020019060200280838360005b83811015612983578082015181840152602081019050612968565b50505050905001848103835286818151815260200191508051906020019060200280838360005b838110156129c55780820151818401526020810190506129aa565b50505050905001848103825285818151815260200191508051906020019080838360005b83811015612a045780820151818401526020810190506129e9565b50505050905090810190601f168015612a315780820380516001836020036101000a031916815260200191505b5098505050505050505050602060405180830381600087803b158015612a5657600080fd5b505af1925050508015612a8a57506040513d6020811015612a7657600080fd5b810190808051906020019092919050505060015b612b9457612a966131c3565b80612aa15750612b43565b806040517f08c379a00000000000000000000000000000000000000000000000000000000081526004018080602001828103825283818151815260200191508051906020019080838360005b83811015612b08578082015181840152602081019050612aed565b50505050905090810190601f168015612b355780820380516001836020036101000a031916815260200191505b509250505060405180910390fd5b6040517f08c379a000000000000000000000000000000000000000000000000000000000815260040180806020018281038252603481526020018061327a6034913960400191505060405180910390fd5b63bc197c8160e01b7bffffffffffffffffffffffffffffffffffffffffffffffffffffffff1916817bffffffffffffffffffffffffffffffffffffffffffffffffffffffff191614612c31576040517f08c379a00000000000000000000000000000000000000000000000000000000081526004018080602001828103825260288152602001806132ae6028913960400191505060405180910390fd5b505b505050505050565b60008082905060005b8551811015612ce2576000868281518110612c5b57fe5b60200260200101519050808311612ca25782816040516020018083815260200182815260200192505050604051602081830303815290604052805190602001209250612cd4565b808360405160200180838152602001828152602001925050506040516020818303038152906040528051906020012092505b508080600101915050612c44565b508381149150509392505050565b60006101008281612cfd57fe5b04905060006101008381612d0d57fe5b069050806001901b60086000868152602001908152602001600020600084815260200190815260200160002054176008600086815260200190815260200160002060008481526020019081526020016000208190555050505050565b60606000600167ffffffffffffffff81118015612d8557600080fd5b50604051908082528060200260200182016040528015612db45781602001602082028036833780820191505090505b5090508281600081518110612dc557fe5b60200260200101818152505080915050919050565b612df98473ffffffffffffffffffffffffffffffffffffffff166130e7565b156130df578373ffffffffffffffffffffffffffffffffffffffff1663f23a6e6187878686866040518663ffffffff1660e01b8152600401808673ffffffffffffffffffffffffffffffffffffffff1681526020018573ffffffffffffffffffffffffffffffffffffffff16815260200184815260200183815260200180602001828103825283818151815260200191508051906020019080838360005b83811015612eb2578082015181840152602081019050612e97565b50505050905090810190601f168015612edf5780820380516001836020036101000a031916815260200191505b509650505050505050602060405180830381600087803b158015612f0257600080fd5b505af1925050508015612f3657506040513d6020811015612f2257600080fd5b810190808051906020019092919050505060015b61304057612f426131c3565b80612f4d5750612fef565b806040517f08c379a00000000000000000000000000000000000000000000000000000000081526004018080602001828103825283818151815260200191508051906020019080838360005b83811015612fb4578082015181840152602081019050612f99565b50505050905090810190601f168015612fe15780820380516001836020036101000a031916815260200191505b509250505060405180910390fd5b6040517f08c379a000000000000000000000000000000000000000000000000000000000815260040180806020018281038252603481526020018061327a6034913960400191505060405180910390fd5b63f23a6e6160e01b7bffffffffffffffffffffffffffffffffffffffffffffffffffffffff1916817bffffffffffffffffffffffffffffffffffffffffffffffffffffffff1916146130dd576040517f08c379a00000000000000000000000000000000000000000000000000000000081526004018080602001828103825260288152602001806132ae6028913960400191505060405180910390fd5b505b505050505050565b600080823b905060008111915050919050565b828054600181600116156101000203166002900490600052602060002090601f0160209004810192826131305760008555613177565b82601f1061314957803560ff1916838001178555613177565b82800160010185558215613177579182015b8281111561317657823582559160200191906001019061315b565b5b5090506131849190613188565b5090565b5b808211156131a1576000816000905550600101613189565b5090565b6000601f19601f8301169050919050565b60008160e01c9050919050565b600060443d10156131d357613276565b60046000803e6131e46000516131b6565b6308c379a081146131f55750613276565b60405160043d036004823e80513d602482011167ffffffffffffffff8211171561322157505050613276565b808201805167ffffffffffffffff811115613240575050505050613276565b8060208301013d850181111561325b57505050505050613276565b613264826131a5565b60208401016040528296505050505050505b9056fe455243313135353a207472616e7366657220746f206e6f6e2045524331313535526563656976657220696d706c656d656e746572455243313135353a204552433131353552656365697665722072656a656374656420746f6b656e73455243313135353a2062616c616e636520717565727920666f7220746865207a65726f20616464726573734f776e61626c653a206e6577206f776e657220697320746865207a65726f2061646472657373455243313135353a2063616c6c6572206973206e6f74206f776e6572206e6f7220617070726f766564455243313135353a207472616e7366657220746f20746865207a65726f2061646472657373455243313135353a207472616e736665722063616c6c6572206973206e6f74206f776e6572206e6f7220617070726f766564455243313135353a20696e73756666696369656e742062616c616e636520666f72207472616e73666572455243313135353a2073657474696e6720617070726f76616c2073746174757320666f722073656c66455243313135353a206163636f756e747320616e6420696473206c656e677468206d69736d61746368455243313135353a2069647320616e6420616d6f756e7473206c656e677468206d69736d61746368455243313135353a206d696e7420746f20746865207a65726f2061646472657373a2646970667358221220de831879dc1d71f1fa20a2d9545a00844bd93ab7ccbf25a1b77aafbc04ae64ee64736f6c63430007060033",
  "immutableReferences": {},
  "source": "// SPDX-License-Identifier: GPL-3.0\n/*\n *     Copyright (C) 2021 TART K.K.\n *\n *     This program is free software: you can redistribute it and/or modify\n *     it under the terms of the GNU General Public License as published by\n *     the Free Software Foundation, either version 3 of the License, or\n *     (at your option) any later version.\n *\n *     This program is distributed in the hope that it will be useful,\n *     but WITHOUT ANY WARRANTY; without even the implied warranty of\n *     MERCHANTABILITY or FITNESS FOR A PARTICULAR PURPOSE.  See the\n *     GNU General Public License for more details.\n *\n *     You should have received a copy of the GNU General Public License\n *     along with this program.  If not, see https://www.gnu.org/licenses/.\n */\n\npragma solidity =0.7.6;\n\nimport \"@iroiro/merkle-distributor/contracts/StringMerkleTreeManager.sol\";\nimport \"../interfaces/NFTDistributorInterfaceV1.sol\";\n\ncontract UUIDNFTDistributor is NFTDistributorInterfaceV1, StringMerkleTreeManager {\n    constructor (string memory _distributorInfoCid, string memory uri)\n    NFTDistributorInterfaceV1(_distributorInfoCid, uri) {}\n\n    function createCampaign(\n        bytes32 merkleRoot,\n        string calldata merkleTreeCid,\n        string calldata nftMetadataCid\n    ) external override {\n        emit CreateCampaign(\n            nextTreeId,\n            msg.sender,\n            merkleTreeCid,\n            nftMetadataCid\n        );\n\n        addTree(merkleRoot);\n    }\n\n    function claim(\n        uint256 treeId,\n        uint256 index,\n        string calldata target,\n        bytes32[] calldata merkleProof\n    ) virtual external {\n        require(proof(treeId, index, target, 1, merkleProof));\n\n        _mint(msg.sender, treeId, 1, \"\");\n    }\n}\n",
  "sourcePath": "/Users/wildmouse/ghq/github.com/iroiro/iroiro/contract/contracts/distributors/UUIDNFT.sol",
  "compiler": {
    "name": "solc",
    "version": "0.7.6+commit.7338295f.Emscripten.clang"
  },
  "schemaVersion": "3.3.4",
  "updatedAt": "2021-03-29T10:27:09.900Z",
  "networkType": "ethereum",
  "devdoc": {
    "kind": "dev",
    "methods": {
      "balanceOf(address,uint256)": {
        "details": "See {IERC1155-balanceOf}. Requirements: - `account` cannot be the zero address."
      },
      "balanceOfBatch(address[],uint256[])": {
        "details": "See {IERC1155-balanceOfBatch}. Requirements: - `accounts` and `ids` must have the same length."
      },
      "isApprovedForAll(address,address)": {
        "details": "See {IERC1155-isApprovedForAll}."
      },
      "owner()": {
        "details": "Returns the address of the current owner."
      },
      "renounceOwnership()": {
        "details": "Leaves the contract without owner. It will not be possible to call `onlyOwner` functions anymore. Can only be called by the current owner. NOTE: Renouncing ownership will leave the contract without an owner, thereby removing any functionality that is only available to the owner."
      },
      "safeBatchTransferFrom(address,address,uint256[],uint256[],bytes)": {
        "details": "See {IERC1155-safeBatchTransferFrom}."
      },
      "safeTransferFrom(address,address,uint256,uint256,bytes)": {
        "details": "See {IERC1155-safeTransferFrom}."
      },
      "setApprovalForAll(address,bool)": {
        "details": "See {IERC1155-setApprovalForAll}."
      },
      "supportsInterface(bytes4)": {
        "details": "See {IERC165-supportsInterface}. Time complexity O(1), guaranteed to always use less than 30 000 gas."
      },
      "transferOwnership(address)": {
        "details": "Transfers ownership of the contract to a new account (`newOwner`). Can only be called by the current owner."
      }
    },
    "version": 1
  },
  "userdoc": {
    "kind": "user",
    "methods": {},
    "version": 1
  }
}