{
  "contractName": "UUIDNFTDistributor",
  "abi": [
    {
      "inputs": [
        {
          "internalType": "string",
          "name": "_distributorInfoCid",
          "type": "string"
        },
        {
          "internalType": "string",
          "name": "uri",
          "type": "string"
        }
      ],
      "stateMutability": "nonpayable",
      "type": "constructor"
    },
    {
      "anonymous": false,
      "inputs": [
        {
          "indexed": true,
          "internalType": "address",
          "name": "account",
          "type": "address"
        },
        {
          "indexed": true,
          "internalType": "address",
          "name": "operator",
          "type": "address"
        },
        {
          "indexed": false,
          "internalType": "bool",
          "name": "approved",
          "type": "bool"
        }
      ],
      "name": "ApprovalForAll",
      "type": "event"
    },
    {
      "anonymous": false,
      "inputs": [
        {
          "indexed": true,
          "internalType": "uint64",
          "name": "treeId",
          "type": "uint64"
        },
        {
          "indexed": true,
          "internalType": "address",
          "name": "creator",
          "type": "address"
        },
        {
          "indexed": false,
          "internalType": "string",
          "name": "merkleTreeCid",
          "type": "string"
        },
        {
          "indexed": false,
          "internalType": "string",
          "name": "campaignInfoCid",
          "type": "string"
        },
        {
          "indexed": false,
          "internalType": "string",
          "name": "nftMetadataCid",
          "type": "string"
        }
      ],
      "name": "CreateCampaign",
      "type": "event"
    },
    {
      "anonymous": false,
      "inputs": [
        {
          "indexed": true,
          "internalType": "address",
          "name": "previousOwner",
          "type": "address"
        },
        {
          "indexed": true,
          "internalType": "address",
          "name": "newOwner",
          "type": "address"
        }
      ],
      "name": "OwnershipTransferred",
      "type": "event"
    },
    {
      "anonymous": false,
      "inputs": [
        {
          "indexed": true,
          "internalType": "address",
          "name": "operator",
          "type": "address"
        },
        {
          "indexed": true,
          "internalType": "address",
          "name": "from",
          "type": "address"
        },
        {
          "indexed": true,
          "internalType": "address",
          "name": "to",
          "type": "address"
        },
        {
          "indexed": false,
          "internalType": "uint256[]",
          "name": "ids",
          "type": "uint256[]"
        },
        {
          "indexed": false,
          "internalType": "uint256[]",
          "name": "values",
          "type": "uint256[]"
        }
      ],
      "name": "TransferBatch",
      "type": "event"
    },
    {
      "anonymous": false,
      "inputs": [
        {
          "indexed": true,
          "internalType": "address",
          "name": "operator",
          "type": "address"
        },
        {
          "indexed": true,
          "internalType": "address",
          "name": "from",
          "type": "address"
        },
        {
          "indexed": true,
          "internalType": "address",
          "name": "to",
          "type": "address"
        },
        {
          "indexed": false,
          "internalType": "uint256",
          "name": "id",
          "type": "uint256"
        },
        {
          "indexed": false,
          "internalType": "uint256",
          "name": "value",
          "type": "uint256"
        }
      ],
      "name": "TransferSingle",
      "type": "event"
    },
    {
      "anonymous": false,
      "inputs": [
        {
          "indexed": false,
          "internalType": "string",
          "name": "value",
          "type": "string"
        },
        {
          "indexed": true,
          "internalType": "uint256",
          "name": "id",
          "type": "uint256"
        }
      ],
      "name": "URI",
      "type": "event"
    },
    {
      "anonymous": false,
      "inputs": [
        {
          "indexed": false,
          "internalType": "string",
          "name": "cid",
          "type": "string"
        }
      ],
      "name": "UpdateDistributorInfo",
      "type": "event"
    },
    {
      "inputs": [
        {
          "internalType": "bytes32",
          "name": "newMerkleRoot",
          "type": "bytes32"
        }
      ],
      "name": "addTree",
      "outputs": [],
      "stateMutability": "nonpayable",
      "type": "function"
    },
    {
      "inputs": [
        {
          "internalType": "address",
          "name": "account",
          "type": "address"
        },
        {
          "internalType": "uint256",
          "name": "id",
          "type": "uint256"
        }
      ],
      "name": "balanceOf",
      "outputs": [
        {
          "internalType": "uint256",
          "name": "",
          "type": "uint256"
        }
      ],
      "stateMutability": "view",
      "type": "function",
      "constant": true
    },
    {
      "inputs": [
        {
          "internalType": "address[]",
          "name": "accounts",
          "type": "address[]"
        },
        {
          "internalType": "uint256[]",
          "name": "ids",
          "type": "uint256[]"
        }
      ],
      "name": "balanceOfBatch",
      "outputs": [
        {
          "internalType": "uint256[]",
          "name": "",
          "type": "uint256[]"
        }
      ],
      "stateMutability": "view",
      "type": "function",
      "constant": true
    },
    {
      "inputs": [
        {
          "internalType": "address",
          "name": "account",
          "type": "address"
        },
        {
          "internalType": "address",
          "name": "operator",
          "type": "address"
        }
      ],
      "name": "isApprovedForAll",
      "outputs": [
        {
          "internalType": "bool",
          "name": "",
          "type": "bool"
        }
      ],
      "stateMutability": "view",
      "type": "function",
      "constant": true
    },
    {
      "inputs": [
        {
          "internalType": "uint64",
          "name": "treeId",
          "type": "uint64"
        },
        {
          "internalType": "uint256",
          "name": "index",
          "type": "uint256"
        }
      ],
      "name": "isProven",
      "outputs": [
        {
          "internalType": "bool",
          "name": "",
          "type": "bool"
        }
      ],
      "stateMutability": "view",
      "type": "function",
      "constant": true
    },
    {
      "inputs": [
        {
          "internalType": "uint64",
          "name": "tokenId",
          "type": "uint64"
        }
      ],
      "name": "merkleRoot",
      "outputs": [
        {
          "internalType": "bytes32",
          "name": "",
          "type": "bytes32"
        }
      ],
      "stateMutability": "view",
      "type": "function",
      "constant": true
    },
    {
      "inputs": [
        {
          "internalType": "uint64",
          "name": "",
          "type": "uint64"
        }
      ],
      "name": "merkleRootMap",
      "outputs": [
        {
          "internalType": "bytes32",
          "name": "",
          "type": "bytes32"
        }
      ],
      "stateMutability": "view",
      "type": "function",
      "constant": true
    },
    {
      "inputs": [],
      "name": "nextTreeId",
      "outputs": [
        {
          "internalType": "uint64",
          "name": "",
          "type": "uint64"
        }
      ],
      "stateMutability": "view",
      "type": "function",
      "constant": true
    },
    {
      "inputs": [],
      "name": "owner",
      "outputs": [
        {
          "internalType": "address",
          "name": "",
          "type": "address"
        }
      ],
      "stateMutability": "view",
      "type": "function",
      "constant": true
    },
    {
      "inputs": [
        {
          "internalType": "uint64",
          "name": "treeId",
          "type": "uint64"
        },
        {
          "internalType": "uint256",
          "name": "index",
          "type": "uint256"
        },
        {
          "internalType": "string",
          "name": "target",
          "type": "string"
        },
        {
          "internalType": "uint256",
          "name": "amount",
          "type": "uint256"
        },
        {
          "internalType": "bytes32[]",
          "name": "merkleProof",
          "type": "bytes32[]"
        }
      ],
      "name": "proof",
      "outputs": [
        {
          "internalType": "bool",
          "name": "",
          "type": "bool"
        }
      ],
      "stateMutability": "nonpayable",
      "type": "function"
    },
    {
      "inputs": [],
      "name": "renounceOwnership",
      "outputs": [],
      "stateMutability": "nonpayable",
      "type": "function"
    },
    {
      "inputs": [
        {
          "internalType": "address",
          "name": "from",
          "type": "address"
        },
        {
          "internalType": "address",
          "name": "to",
          "type": "address"
        },
        {
          "internalType": "uint256[]",
          "name": "ids",
          "type": "uint256[]"
        },
        {
          "internalType": "uint256[]",
          "name": "amounts",
          "type": "uint256[]"
        },
        {
          "internalType": "bytes",
          "name": "data",
          "type": "bytes"
        }
      ],
      "name": "safeBatchTransferFrom",
      "outputs": [],
      "stateMutability": "nonpayable",
      "type": "function"
    },
    {
      "inputs": [
        {
          "internalType": "address",
          "name": "from",
          "type": "address"
        },
        {
          "internalType": "address",
          "name": "to",
          "type": "address"
        },
        {
          "internalType": "uint256",
          "name": "id",
          "type": "uint256"
        },
        {
          "internalType": "uint256",
          "name": "amount",
          "type": "uint256"
        },
        {
          "internalType": "bytes",
          "name": "data",
          "type": "bytes"
        }
      ],
      "name": "safeTransferFrom",
      "outputs": [],
      "stateMutability": "nonpayable",
      "type": "function"
    },
    {
      "inputs": [
        {
          "internalType": "address",
          "name": "operator",
          "type": "address"
        },
        {
          "internalType": "bool",
          "name": "approved",
          "type": "bool"
        }
      ],
      "name": "setApprovalForAll",
      "outputs": [],
      "stateMutability": "nonpayable",
      "type": "function"
    },
    {
      "inputs": [
        {
          "internalType": "string",
          "name": "newUri",
          "type": "string"
        }
      ],
      "name": "setURI",
      "outputs": [],
      "stateMutability": "nonpayable",
      "type": "function"
    },
    {
      "inputs": [
        {
          "internalType": "bytes4",
          "name": "interfaceId",
          "type": "bytes4"
        }
      ],
      "name": "supportsInterface",
      "outputs": [
        {
          "internalType": "bool",
          "name": "",
          "type": "bool"
        }
      ],
      "stateMutability": "view",
      "type": "function",
      "constant": true
    },
    {
      "inputs": [
        {
          "internalType": "address",
          "name": "newOwner",
          "type": "address"
        }
      ],
      "name": "transferOwnership",
      "outputs": [],
      "stateMutability": "nonpayable",
      "type": "function"
    },
    {
      "inputs": [
        {
          "internalType": "string",
          "name": "distributorInfoCid",
          "type": "string"
        }
      ],
      "name": "updateDistributorInfo",
      "outputs": [],
      "stateMutability": "nonpayable",
      "type": "function"
    },
    {
      "inputs": [
        {
          "internalType": "uint256",
          "name": "",
          "type": "uint256"
        }
      ],
      "name": "uri",
      "outputs": [
        {
          "internalType": "string",
          "name": "",
          "type": "string"
        }
      ],
      "stateMutability": "view",
      "type": "function",
      "constant": true
    },
    {
      "inputs": [
        {
          "internalType": "bytes32",
          "name": "merkleRoot",
          "type": "bytes32"
        },
        {
          "internalType": "string",
          "name": "merkleTreeCid",
          "type": "string"
        },
        {
          "internalType": "string",
          "name": "campaignInfoCid",
          "type": "string"
        },
        {
          "internalType": "string",
          "name": "nftMetadataCid",
          "type": "string"
        }
      ],
      "name": "createCampaign",
      "outputs": [],
      "stateMutability": "nonpayable",
      "type": "function"
    },
    {
      "inputs": [
        {
          "internalType": "uint64",
          "name": "treeId",
          "type": "uint64"
        },
        {
          "internalType": "uint256",
          "name": "index",
          "type": "uint256"
        },
        {
          "internalType": "string",
          "name": "target",
          "type": "string"
        },
        {
          "internalType": "uint256",
          "name": "amount",
          "type": "uint256"
        },
        {
          "internalType": "bytes32[]",
          "name": "merkleProof",
          "type": "bytes32[]"
        }
      ],
      "name": "claim",
      "outputs": [],
      "stateMutability": "nonpayable",
      "type": "function"
    }
  ],
  "bytecode": "0x60806040526001600460146101000a81548167ffffffffffffffff021916908367ffffffffffffffff1602179055503480156200003b57600080fd5b5060405162003f9938038062003f99833981810160405260408110156200006157600080fd5b81019080805160405193929190846401000000008211156200008257600080fd5b838201915060208201858111156200009957600080fd5b8251866001820283011164010000000082111715620000b757600080fd5b8083526020830192505050908051906020019080838360005b83811015620000ed578082015181840152602081019050620000d0565b50505050905090810190601f1680156200011b5780820380516001836020036101000a031916815260200191505b50604052602001805160405193929190846401000000008211156200013f57600080fd5b838201915060208201858111156200015657600080fd5b82518660018202830111640100000000821117156200017457600080fd5b8083526020830192505050908051906020019080838360005b83811015620001aa5780820151818401526020810190506200018d565b50505050905090810190601f168015620001d85780820380516001836020036101000a031916815260200191505b50604052505050818180620001fa6301ffc9a760e01b6200039660201b60201c565b6200020b816200049f60201b60201c565b6200022363d9b67a2660e01b6200039660201b60201c565b6200023b630e89341c60e01b6200039660201b60201c565b5060006200024e620004bb60201b60201c565b905080600460006101000a81548173ffffffffffffffffffffffffffffffffffffffff021916908373ffffffffffffffffffffffffffffffffffffffff1602179055508073ffffffffffffffffffffffffffffffffffffffff16600073ffffffffffffffffffffffffffffffffffffffff167f8be0079c531659141344cd1fd0a4f28419497f9722a3daafe3b4186f6b6457e060405160405180910390a3507f1e54e07388f827c88e88d724fc81b174a902ab48e8703c3cc30a38b221b83fae826040518080602001828103825283818151815260200191508051906020019080838360005b838110156200035157808201518184015260208101905062000334565b50505050905090810190601f1680156200037f5780820380516001836020036101000a031916815260200191505b509250505060405180910390a15050505062000579565b63ffffffff60e01b817bffffffffffffffffffffffffffffffffffffffffffffffffffffffff1916141562000433576040517f08c379a000000000000000000000000000000000000000000000000000000000815260040180806020018281038252601c8152602001807f4552433136353a20696e76616c696420696e746572666163652069640000000081525060200191505060405180910390fd5b6001600080837bffffffffffffffffffffffffffffffffffffffffffffffffffffffff19167bffffffffffffffffffffffffffffffffffffffffffffffffffffffff1916815260200190815260200160002060006101000a81548160ff02191690831515021790555050565b8060039080519060200190620004b7929190620004c3565b5050565b600033905090565b828054600181600116156101000203166002900490600052602060002090601f016020900481019282620004fb576000855562000547565b82601f106200051657805160ff191683800117855562000547565b8280016001018555821562000547579182015b828111156200054657825182559160200191906001019062000529565b5b5090506200055691906200055a565b5090565b5b80821115620005755760008160009055506001016200055b565b5090565b613a1080620005896000396000f3fe608060405234801561001057600080fd5b50600436106101365760003560e01c8063715018a6116100b8578063ae08a84a1161007c578063ae08a84a14610ba6578063cc0a56f814610cb2578063d799160f14610cfe578063e985e9c514610d26578063f242432a14610da0578063f2fde38b14610eaf57610136565b8063715018a614610a745780637a3013c414610a7e5780638ca259d314610ad65780638da5cb5b14610b22578063a22cb46514610b5657610136565b8063298d81d9116100ff578063298d81d9146105135780632eb2c2d6146106095780634e1273f41461082c5780635fdeeee3146109cd578063693d0d7814610a4657610136565b8062fdd58e1461013b57806301ffc9a71461019d57806302fe530514610200578063076b53d4146102795780630e89341c1461046c575b600080fd5b6101876004803603604081101561015157600080fd5b81019080803573ffffffffffffffffffffffffffffffffffffffff16906020019092919080359060200190929190505050610ef3565b6040518082815260200191505060405180910390f35b6101e8600480360360208110156101b357600080fd5b8101908080357bffffffffffffffffffffffffffffffffffffffffffffffffffffffff19169060200190929190505050610fd3565b60405180821515815260200191505060405180910390f35b6102776004803603602081101561021657600080fd5b810190808035906020019064010000000081111561023357600080fd5b82018360208201111561024557600080fd5b8035906020019184600183028401116401000000008311171561026757600080fd5b909192939192939050505061103a565b005b61046a6004803603608081101561028f57600080fd5b8101908080359060200190929190803590602001906401000000008111156102b657600080fd5b8201836020820111156102c857600080fd5b803590602001918460018302840111640100000000831117156102ea57600080fd5b91908080601f016020809104026020016040519081016040528093929190818152602001838380828437600081840152601f19601f8201169050808301925050505050505091929192908035906020019064010000000081111561034d57600080fd5b82018360208201111561035f57600080fd5b8035906020019184600183028401116401000000008311171561038157600080fd5b91908080601f016020809104026020016040519081016040528093929190818152602001838380828437600081840152601f19601f820116905080830192505050505050509192919290803590602001906401000000008111156103e457600080fd5b8201836020820111156103f657600080fd5b8035906020019184600183028401116401000000008311171561041857600080fd5b91908080601f016020809104026020016040519081016040528093929190818152602001838380828437600081840152601f19601f82011690508083019250505050505050919291929050505061113a565b005b6104986004803603602081101561048257600080fd5b81019080803590602001909291905050506112f7565b6040518080602001828103825283818151815260200191508051906020019080838360005b838110156104d85780820151818401526020810190506104bd565b50505050905090810190601f1680156105055780820380516001836020036101000a031916815260200191505b509250505060405180910390f35b610607600480360360a081101561052957600080fd5b81019080803567ffffffffffffffff169060200190929190803590602001909291908035906020019064010000000081111561056457600080fd5b82018360208201111561057657600080fd5b8035906020019184600183028401116401000000008311171561059857600080fd5b909192939192939080359060200190929190803590602001906401000000008111156105c357600080fd5b8201836020820111156105d557600080fd5b803590602001918460208302840111640100000000831117156105f757600080fd5b909192939192939050505061139b565b005b61082a600480360360a081101561061f57600080fd5b81019080803573ffffffffffffffffffffffffffffffffffffffff169060200190929190803573ffffffffffffffffffffffffffffffffffffffff1690602001909291908035906020019064010000000081111561067c57600080fd5b82018360208201111561068e57600080fd5b803590602001918460208302840111640100000000831117156106b057600080fd5b919080806020026020016040519081016040528093929190818152602001838360200280828437600081840152601f19601f8201169050808301925050505050505091929192908035906020019064010000000081111561071057600080fd5b82018360208201111561072257600080fd5b8035906020019184602083028401116401000000008311171561074457600080fd5b919080806020026020016040519081016040528093929190818152602001838360200280828437600081840152601f19601f820116905080830192505050505050509192919290803590602001906401000000008111156107a457600080fd5b8201836020820111156107b657600080fd5b803590602001918460018302840111640100000000831117156107d857600080fd5b91908080601f016020809104026020016040519081016040528093929190818152602001838380828437600081840152601f19601f8201169050808301925050505050505091929192905050506113e1565b005b6109766004803603604081101561084257600080fd5b810190808035906020019064010000000081111561085f57600080fd5b82018360208201111561087157600080fd5b8035906020019184602083028401116401000000008311171561089357600080fd5b919080806020026020016040519081016040528093929190818152602001838360200280828437600081840152601f19601f820116905080830192505050505050509192919290803590602001906401000000008111156108f357600080fd5b82018360208201111561090557600080fd5b8035906020019184602083028401116401000000008311171561092757600080fd5b919080806020026020016040519081016040528093929190818152602001838360200280828437600081840152601f19601f82011690508083019250505050505050919291929050505061186c565b6040518080602001828103825283818151815260200191508051906020019060200280838360005b838110156109b957808201518184015260208101905061099e565b505050509050019250505060405180910390f35b610a44600480360360208110156109e357600080fd5b8101908080359060200190640100000000811115610a0057600080fd5b820183602082011115610a1257600080fd5b80359060200191846001830284011164010000000083111715610a3457600080fd5b909192939192939050505061197e565b005b610a7260048036036020811015610a5c57600080fd5b8101908080359060200190929190505050611a94565b005b610a7c611b35565b005b610abe60048036036040811015610a9457600080fd5b81019080803567ffffffffffffffff16906020019092919080359060200190929190505050611ca5565b60405180821515815260200191505060405180910390f35b610b0c60048036036020811015610aec57600080fd5b81019080803567ffffffffffffffff169060200190929190505050611d13565b6040518082815260200191505060405180910390f35b610b2a611d2b565b604051808273ffffffffffffffffffffffffffffffffffffffff16815260200191505060405180910390f35b610ba460048036036040811015610b6c57600080fd5b81019080803573ffffffffffffffffffffffffffffffffffffffff169060200190929190803515159060200190929190505050611d55565b005b610c9a600480360360a0811015610bbc57600080fd5b81019080803567ffffffffffffffff1690602001909291908035906020019092919080359060200190640100000000811115610bf757600080fd5b820183602082011115610c0957600080fd5b80359060200191846001830284011164010000000083111715610c2b57600080fd5b90919293919293908035906020019092919080359060200190640100000000811115610c5657600080fd5b820183602082011115610c6857600080fd5b80359060200191846020830284011164010000000083111715610c8a57600080fd5b9091929391929390505050611eee565b60405180821515815260200191505060405180910390f35b610ce860048036036020811015610cc857600080fd5b81019080803567ffffffffffffffff1690602001909291905050506120e2565b6040518082815260200191505060405180910390f35b610d06612113565b604051808267ffffffffffffffff16815260200191505060405180910390f35b610d8860048036036040811015610d3c57600080fd5b81019080803573ffffffffffffffffffffffffffffffffffffffff169060200190929190803573ffffffffffffffffffffffffffffffffffffffff16906020019092919050505061212d565b60405180821515815260200191505060405180910390f35b610ead600480360360a0811015610db657600080fd5b81019080803573ffffffffffffffffffffffffffffffffffffffff169060200190929190803573ffffffffffffffffffffffffffffffffffffffff169060200190929190803590602001909291908035906020019092919080359060200190640100000000811115610e2757600080fd5b820183602082011115610e3957600080fd5b80359060200191846001830284011164010000000083111715610e5b57600080fd5b91908080601f016020809104026020016040519081016040528093929190818152602001838380828437600081840152601f19601f8201169050808301925050505050505091929192905050506121c1565b005b610ef160048036036020811015610ec557600080fd5b81019080803573ffffffffffffffffffffffffffffffffffffffff169060200190929190505050612598565b005b60008073ffffffffffffffffffffffffffffffffffffffff168373ffffffffffffffffffffffffffffffffffffffff161415610f7a576040517f08c379a000000000000000000000000000000000000000000000000000000000815260040180806020018281038252602b815260200180613845602b913960400191505060405180910390fd5b6001600083815260200190815260200160002060008473ffffffffffffffffffffffffffffffffffffffff1673ffffffffffffffffffffffffffffffffffffffff16815260200190815260200160002054905092915050565b6000806000837bffffffffffffffffffffffffffffffffffffffffffffffffffffffff19167bffffffffffffffffffffffffffffffffffffffffffffffffffffffff1916815260200190815260200160002060009054906101000a900460ff169050919050565b61104261278d565b73ffffffffffffffffffffffffffffffffffffffff16611060611d2b565b73ffffffffffffffffffffffffffffffffffffffff16146110e9576040517f08c379a00000000000000000000000000000000000000000000000000000000081526004018080602001828103825260208152602001807f4f776e61626c653a2063616c6c6572206973206e6f7420746865206f776e657281525060200191505060405180910390fd5b61113682828080601f016020809104026020016040519081016040528093929190818152602001838380828437600081840152601f19601f82011690508083019250505050505050612795565b5050565b3373ffffffffffffffffffffffffffffffffffffffff16600460149054906101000a900467ffffffffffffffff1667ffffffffffffffff167fb312fa5716f114646bc8999352be4176787db7aaffe5d990ad6e1465af0de78d85858560405180806020018060200180602001848103845287818151815260200191508051906020019080838360005b838110156111de5780820151818401526020810190506111c3565b50505050905090810190601f16801561120b5780820380516001836020036101000a031916815260200191505b50848103835286818151815260200191508051906020019080838360005b83811015611244578082015181840152602081019050611229565b50505050905090810190601f1680156112715780820380516001836020036101000a031916815260200191505b50848103825285818151815260200191508051906020019080838360005b838110156112aa57808201518184015260208101905061128f565b50505050905090810190601f1680156112d75780820380516001836020036101000a031916815260200191505b50965050505050505060405180910390a36112f184611a94565b50505050565b606060038054600181600116156101000203166002900480601f01602080910402602001604051908101604052809291908181526020018280546001816001161561010002031660029004801561138f5780601f106113645761010080835404028352916020019161138f565b820191906000526020600020905b81548152906001019060200180831161137257829003601f168201915b50505050509050919050565b6113aa87878787878787611eee565b6113b357600080fd5b6113d8338867ffffffffffffffff1685604051806020016040528060008152506127af565b50505050505050565b815183511461143b576040517f08c379a00000000000000000000000000000000000000000000000000000000081526004018080602001828103825260288152602001806139926028913960400191505060405180910390fd5b600073ffffffffffffffffffffffffffffffffffffffff168473ffffffffffffffffffffffffffffffffffffffff1614156114c1576040517f08c379a00000000000000000000000000000000000000000000000000000000081526004018080602001828103825260258152602001806138bf6025913960400191505060405180910390fd5b6114c961278d565b73ffffffffffffffffffffffffffffffffffffffff168573ffffffffffffffffffffffffffffffffffffffff16148061150f575061150e8561150961278d565b61212d565b5b611564576040517f08c379a00000000000000000000000000000000000000000000000000000000081526004018080602001828103825260328152602001806138e46032913960400191505060405180910390fd5b600061156e61278d565b905061157e8187878787876129b2565b60005b845181101561174f57600085828151811061159857fe5b6020026020010151905060008583815181106115b057fe5b60200260200101519050611637816040518060600160405280602a8152602001613916602a91396001600086815260200190815260200160002060008d73ffffffffffffffffffffffffffffffffffffffff1673ffffffffffffffffffffffffffffffffffffffff168152602001908152602001600020546129ba9092919063ffffffff16565b6001600084815260200190815260200160002060008b73ffffffffffffffffffffffffffffffffffffffff1673ffffffffffffffffffffffffffffffffffffffff168152602001908152602001600020819055506116ee816001600085815260200190815260200160002060008b73ffffffffffffffffffffffffffffffffffffffff1673ffffffffffffffffffffffffffffffffffffffff16815260200190815260200160002054612a7490919063ffffffff16565b6001600084815260200190815260200160002060008a73ffffffffffffffffffffffffffffffffffffffff1673ffffffffffffffffffffffffffffffffffffffff168152602001908152602001600020819055505050806001019050611581565b508473ffffffffffffffffffffffffffffffffffffffff168673ffffffffffffffffffffffffffffffffffffffff168273ffffffffffffffffffffffffffffffffffffffff167f4a39dc06d4c0dbc64b70af90fd698a233a518aa5d07e595d983b8c0526c8f7fb8787604051808060200180602001838103835285818151815260200191508051906020019060200280838360005b838110156117ff5780820151818401526020810190506117e4565b50505050905001838103825284818151815260200191508051906020019060200280838360005b83811015611841578082015181840152602081019050611826565b5050505090500194505050505060405180910390a4611864818787878787612afc565b505050505050565b606081518351146118c8576040517f08c379a00000000000000000000000000000000000000000000000000000000081526004018080602001828103825260298152602001806139696029913960400191505060405180910390fd5b6000835167ffffffffffffffff811180156118e257600080fd5b506040519080825280602002602001820160405280156119115781602001602082028036833780820191505090505b50905060005b84518110156119735761195085828151811061192f57fe5b602002602001015185838151811061194357fe5b6020026020010151610ef3565b82828151811061195c57fe5b602002602001018181525050806001019050611917565b508091505092915050565b61198661278d565b73ffffffffffffffffffffffffffffffffffffffff166119a4611d2b565b73ffffffffffffffffffffffffffffffffffffffff1614611a2d576040517f08c379a00000000000000000000000000000000000000000000000000000000081526004018080602001828103825260208152602001807f4f776e61626c653a2063616c6c6572206973206e6f7420746865206f776e657281525060200191505060405180910390fd5b7f1e54e07388f827c88e88d724fc81b174a902ab48e8703c3cc30a38b221b83fae828260405180806020018281038252848482818152602001925080828437600081840152601f19601f820116905080830192505050935050505060405180910390a15050565b8060056000600460149054906101000a900467ffffffffffffffff1667ffffffffffffffff1667ffffffffffffffff16815260200190815260200160002081905550611b0a6001600460149054906101000a900467ffffffffffffffff1667ffffffffffffffff16612e8b90919063ffffffff16565b600460146101000a81548167ffffffffffffffff021916908367ffffffffffffffff16021790555050565b611b3d61278d565b73ffffffffffffffffffffffffffffffffffffffff16611b5b611d2b565b73ffffffffffffffffffffffffffffffffffffffff1614611be4576040517f08c379a00000000000000000000000000000000000000000000000000000000081526004018080602001828103825260208152602001807f4f776e61626c653a2063616c6c6572206973206e6f7420746865206f776e657281525060200191505060405180910390fd5b600073ffffffffffffffffffffffffffffffffffffffff16600460009054906101000a900473ffffffffffffffffffffffffffffffffffffffff1673ffffffffffffffffffffffffffffffffffffffff167f8be0079c531659141344cd1fd0a4f28419497f9722a3daafe3b4186f6b6457e060405160405180910390a36000600460006101000a81548173ffffffffffffffffffffffffffffffffffffffff021916908373ffffffffffffffffffffffffffffffffffffffff160217905550565b6000806101008381611cb357fe5b04905060006101008481611cc357fe5b0690506000600660008767ffffffffffffffff16815260200190815260200160002060008481526020019081526020016000205490506000826001901b9050808183161494505050505092915050565b60056020528060005260406000206000915090505481565b6000600460009054906101000a900473ffffffffffffffffffffffffffffffffffffffff16905090565b8173ffffffffffffffffffffffffffffffffffffffff16611d7461278d565b73ffffffffffffffffffffffffffffffffffffffff161415611de1576040517f08c379a00000000000000000000000000000000000000000000000000000000081526004018080602001828103825260298152602001806139406029913960400191505060405180910390fd5b8060026000611dee61278d565b73ffffffffffffffffffffffffffffffffffffffff1673ffffffffffffffffffffffffffffffffffffffff16815260200190815260200160002060008473ffffffffffffffffffffffffffffffffffffffff1673ffffffffffffffffffffffffffffffffffffffff16815260200190815260200160002060006101000a81548160ff0219169083151502179055508173ffffffffffffffffffffffffffffffffffffffff16611e9b61278d565b73ffffffffffffffffffffffffffffffffffffffff167f17307eab39ab6107e8899845ad3d59bd9653f200f220920489ca2b5937696c318360405180821515815260200191505060405180910390a35050565b6000611efa8888611ca5565b15611f6d576040517f08c379a000000000000000000000000000000000000000000000000000000000815260040180806020018281038252601b8152602001807f4d65726b6c65547265653a20416c72656164792070726f76656e2e000000000081525060200191505060405180910390fd5b6000600560008a67ffffffffffffffff1667ffffffffffffffff168152602001908152602001600020549050600087876040516020018083838082843780830192505050925050506040516020818303038152906040528051906020012090506000898288604051602001808481526020018381526020018281526020019350505050604051602081830303815290604052805190602001209050612054868680806020026020016040519081016040528093929190818152602001838360200280828437600081840152601f19601f820116905080830192505050505050508483612f27565b6120c6576040517f08c379a000000000000000000000000000000000000000000000000000000000815260040180806020018281038252601a8152602001807f4d65726b6c65547265653a20496e76616c69642070726f6f662e00000000000081525060200191505060405180910390fd5b6120d08b8b612fdc565b60019350505050979650505050505050565b6000600560008367ffffffffffffffff1667ffffffffffffffff168152602001908152602001600020549050919050565b600460149054906101000a900467ffffffffffffffff1681565b6000600260008473ffffffffffffffffffffffffffffffffffffffff1673ffffffffffffffffffffffffffffffffffffffff16815260200190815260200160002060008373ffffffffffffffffffffffffffffffffffffffff1673ffffffffffffffffffffffffffffffffffffffff16815260200190815260200160002060009054906101000a900460ff16905092915050565b6121ff6040518060400160405280601281526020017f73616665207472616e736665722066726f6d0000000000000000000000000000815250613069565b61220885613167565b61221184613167565b61221a83613216565b61222382613216565b600073ffffffffffffffffffffffffffffffffffffffff168473ffffffffffffffffffffffffffffffffffffffff1614156122a9576040517f08c379a00000000000000000000000000000000000000000000000000000000081526004018080602001828103825260258152602001806138bf6025913960400191505060405180910390fd5b6122b161278d565b73ffffffffffffffffffffffffffffffffffffffff168573ffffffffffffffffffffffffffffffffffffffff1614806122f757506122f6856122f161278d565b61212d565b5b61234c576040517f08c379a00000000000000000000000000000000000000000000000000000000081526004018080602001828103825260298152602001806138966029913960400191505060405180910390fd5b600061235661278d565b9050612376818787612367886132af565b612370886132af565b876129b2565b6123f3836040518060600160405280602a8152602001613916602a91396001600088815260200190815260200160002060008a73ffffffffffffffffffffffffffffffffffffffff1673ffffffffffffffffffffffffffffffffffffffff168152602001908152602001600020546129ba9092919063ffffffff16565b6001600086815260200190815260200160002060008873ffffffffffffffffffffffffffffffffffffffff1673ffffffffffffffffffffffffffffffffffffffff168152602001908152602001600020819055506124aa836001600087815260200190815260200160002060008873ffffffffffffffffffffffffffffffffffffffff1673ffffffffffffffffffffffffffffffffffffffff16815260200190815260200160002054612a7490919063ffffffff16565b6001600086815260200190815260200160002060008773ffffffffffffffffffffffffffffffffffffffff1673ffffffffffffffffffffffffffffffffffffffff168152602001908152602001600020819055508473ffffffffffffffffffffffffffffffffffffffff168673ffffffffffffffffffffffffffffffffffffffff168273ffffffffffffffffffffffffffffffffffffffff167fc3d58168c5ae7397731d063d5bbf3d657854427343f4c083240f7aacaa2d0f628787604051808381526020018281526020019250505060405180910390a4612590818787878787613320565b505050505050565b6125a061278d565b73ffffffffffffffffffffffffffffffffffffffff166125be611d2b565b73ffffffffffffffffffffffffffffffffffffffff1614612647576040517f08c379a00000000000000000000000000000000000000000000000000000000081526004018080602001828103825260208152602001807f4f776e61626c653a2063616c6c6572206973206e6f7420746865206f776e657281525060200191505060405180910390fd5b600073ffffffffffffffffffffffffffffffffffffffff168173ffffffffffffffffffffffffffffffffffffffff1614156126cd576040517f08c379a00000000000000000000000000000000000000000000000000000000081526004018080602001828103825260268152602001806138706026913960400191505060405180910390fd5b8073ffffffffffffffffffffffffffffffffffffffff16600460009054906101000a900473ffffffffffffffffffffffffffffffffffffffff1673ffffffffffffffffffffffffffffffffffffffff167f8be0079c531659141344cd1fd0a4f28419497f9722a3daafe3b4186f6b6457e060405160405180910390a380600460006101000a81548173ffffffffffffffffffffffffffffffffffffffff021916908373ffffffffffffffffffffffffffffffffffffffff16021790555050565b600033905090565b80600390805190602001906127ab929190613669565b5050565b600073ffffffffffffffffffffffffffffffffffffffff168473ffffffffffffffffffffffffffffffffffffffff161415612835576040517f08c379a00000000000000000000000000000000000000000000000000000000081526004018080602001828103825260218152602001806139ba6021913960400191505060405180910390fd5b600061283f61278d565b905061286081600087612851886132af565b61285a886132af565b876129b2565b6128c3836001600087815260200190815260200160002060008873ffffffffffffffffffffffffffffffffffffffff1673ffffffffffffffffffffffffffffffffffffffff16815260200190815260200160002054612a7490919063ffffffff16565b6001600086815260200190815260200160002060008773ffffffffffffffffffffffffffffffffffffffff1673ffffffffffffffffffffffffffffffffffffffff168152602001908152602001600020819055508473ffffffffffffffffffffffffffffffffffffffff16600073ffffffffffffffffffffffffffffffffffffffff168273ffffffffffffffffffffffffffffffffffffffff167fc3d58168c5ae7397731d063d5bbf3d657854427343f4c083240f7aacaa2d0f628787604051808381526020018281526020019250505060405180910390a46129ab81600087878787613320565b5050505050565b505050505050565b6000838311158290612a67576040517f08c379a00000000000000000000000000000000000000000000000000000000081526004018080602001828103825283818151815260200191508051906020019080838360005b83811015612a2c578082015181840152602081019050612a11565b50505050905090810190601f168015612a595780820380516001836020036101000a031916815260200191505b509250505060405180910390fd5b5082840390509392505050565b600080828401905083811015612af2576040517f08c379a000000000000000000000000000000000000000000000000000000000815260040180806020018281038252601b8152602001807f536166654d6174683a206164646974696f6e206f766572666c6f77000000000081525060200191505060405180910390fd5b8091505092915050565b612b1b8473ffffffffffffffffffffffffffffffffffffffff1661362d565b15612e83578373ffffffffffffffffffffffffffffffffffffffff1663bc197c8187878686866040518663ffffffff1660e01b8152600401808673ffffffffffffffffffffffffffffffffffffffff1681526020018573ffffffffffffffffffffffffffffffffffffffff168152602001806020018060200180602001848103845287818151815260200191508051906020019060200280838360005b83811015612bd3578082015181840152602081019050612bb8565b50505050905001848103835286818151815260200191508051906020019060200280838360005b83811015612c15578082015181840152602081019050612bfa565b50505050905001848103825285818151815260200191508051906020019080838360005b83811015612c54578082015181840152602081019050612c39565b50505050905090810190601f168015612c815780820380516001836020036101000a031916815260200191505b5098505050505050505050602060405180830381600087803b158015612ca657600080fd5b505af1925050508015612cda57506040513d6020811015612cc657600080fd5b810190808051906020019092919050505060015b612de457612ce6613732565b80612cf15750612d93565b806040517f08c379a00000000000000000000000000000000000000000000000000000000081526004018080602001828103825283818151815260200191508051906020019080838360005b83811015612d58578082015181840152602081019050612d3d565b50505050905090810190601f168015612d855780820380516001836020036101000a031916815260200191505b509250505060405180910390fd5b6040517f08c379a00000000000000000000000000000000000000000000000000000000081526004018080602001828103825260348152602001806137e96034913960400191505060405180910390fd5b63bc197c8160e01b7bffffffffffffffffffffffffffffffffffffffffffffffffffffffff1916817bffffffffffffffffffffffffffffffffffffffffffffffffffffffff191614612e81576040517f08c379a000000000000000000000000000000000000000000000000000000000815260040180806020018281038252602881526020018061381d6028913960400191505060405180910390fd5b505b505050505050565b60008082840190508367ffffffffffffffff168167ffffffffffffffff161015612f1d576040517f08c379a000000000000000000000000000000000000000000000000000000000815260040180806020018281038252601b8152602001807f536166654d6174683a206164646974696f6e206f766572666c6f77000000000081525060200191505060405180910390fd5b8091505092915050565b60008082905060005b8551811015612fce576000868281518110612f4757fe5b60200260200101519050808311612f8e5782816040516020018083815260200182815260200192505050604051602081830303815290604052805190602001209250612fc0565b808360405160200180838152602001828152602001925050506040516020818303038152906040528051906020012092505b508080600101915050612f30565b508381149150509392505050565b60006101008281612fe957fe5b04905060006101008381612ff957fe5b069050806001901b600660008667ffffffffffffffff16815260200190815260200160002060008481526020019081526020016000205417600660008667ffffffffffffffff16815260200190815260200160002060008481526020019081526020016000208190555050505050565b613164816040516024018080602001828103825283818151815260200191508051906020019080838360005b838110156130b0578082015181840152602081019050613095565b50505050905090810190601f1680156130dd5780820380516001836020036101000a031916815260200191505b50925050506040516020818303038152906040527f41304fac000000000000000000000000000000000000000000000000000000007bffffffffffffffffffffffffffffffffffffffffffffffffffffffff19166020820180517bffffffffffffffffffffffffffffffffffffffffffffffffffffffff8381831617835250505050613640565b50565b61321381604051602401808273ffffffffffffffffffffffffffffffffffffffff1681526020019150506040516020818303038152906040527f2c2ecbc2000000000000000000000000000000000000000000000000000000007bffffffffffffffffffffffffffffffffffffffffffffffffffffffff19166020820180517bffffffffffffffffffffffffffffffffffffffffffffffffffffffff8381831617835250505050613640565b50565b6132ac81604051602401808281526020019150506040516020818303038152906040527ff5b1bba9000000000000000000000000000000000000000000000000000000007bffffffffffffffffffffffffffffffffffffffffffffffffffffffff19166020820180517bffffffffffffffffffffffffffffffffffffffffffffffffffffffff8381831617835250505050613640565b50565b60606000600167ffffffffffffffff811180156132cb57600080fd5b506040519080825280602002602001820160405280156132fa5781602001602082028036833780820191505090505b509050828160008151811061330b57fe5b60200260200101818152505080915050919050565b61333f8473ffffffffffffffffffffffffffffffffffffffff1661362d565b15613625578373ffffffffffffffffffffffffffffffffffffffff1663f23a6e6187878686866040518663ffffffff1660e01b8152600401808673ffffffffffffffffffffffffffffffffffffffff1681526020018573ffffffffffffffffffffffffffffffffffffffff16815260200184815260200183815260200180602001828103825283818151815260200191508051906020019080838360005b838110156133f85780820151818401526020810190506133dd565b50505050905090810190601f1680156134255780820380516001836020036101000a031916815260200191505b509650505050505050602060405180830381600087803b15801561344857600080fd5b505af192505050801561347c57506040513d602081101561346857600080fd5b810190808051906020019092919050505060015b61358657613488613732565b806134935750613535565b806040517f08c379a00000000000000000000000000000000000000000000000000000000081526004018080602001828103825283818151815260200191508051906020019080838360005b838110156134fa5780820151818401526020810190506134df565b50505050905090810190601f1680156135275780820380516001836020036101000a031916815260200191505b509250505060405180910390fd5b6040517f08c379a00000000000000000000000000000000000000000000000000000000081526004018080602001828103825260348152602001806137e96034913960400191505060405180910390fd5b63f23a6e6160e01b7bffffffffffffffffffffffffffffffffffffffffffffffffffffffff1916817bffffffffffffffffffffffffffffffffffffffffffffffffffffffff191614613623576040517f08c379a000000000000000000000000000000000000000000000000000000000815260040180806020018281038252602881526020018061381d6028913960400191505060405180910390fd5b505b505050505050565b600080823b905060008111915050919050565b60008151905060006a636f6e736f6c652e6c6f679050602083016000808483855afa5050505050565b828054600181600116156101000203166002900490600052602060002090601f01602090048101928261369f57600085556136e6565b82601f106136b857805160ff19168380011785556136e6565b828001600101855582156136e6579182015b828111156136e55782518255916020019190600101906136ca565b5b5090506136f391906136f7565b5090565b5b808211156137105760008160009055506001016136f8565b5090565b6000601f19601f8301169050919050565b60008160e01c9050919050565b600060443d1015613742576137e5565b60046000803e613753600051613725565b6308c379a0811461376457506137e5565b60405160043d036004823e80513d602482011167ffffffffffffffff82111715613790575050506137e5565b808201805167ffffffffffffffff8111156137af5750505050506137e5565b8060208301013d85018111156137ca575050505050506137e5565b6137d382613714565b60208401016040528296505050505050505b9056fe455243313135353a207472616e7366657220746f206e6f6e2045524331313535526563656976657220696d706c656d656e746572455243313135353a204552433131353552656365697665722072656a656374656420746f6b656e73455243313135353a2062616c616e636520717565727920666f7220746865207a65726f20616464726573734f776e61626c653a206e6577206f776e657220697320746865207a65726f2061646472657373455243313135353a2063616c6c6572206973206e6f74206f776e6572206e6f7220617070726f766564455243313135353a207472616e7366657220746f20746865207a65726f2061646472657373455243313135353a207472616e736665722063616c6c6572206973206e6f74206f776e6572206e6f7220617070726f766564455243313135353a20696e73756666696369656e742062616c616e636520666f72207472616e73666572455243313135353a2073657474696e6720617070726f76616c2073746174757320666f722073656c66455243313135353a206163636f756e747320616e6420696473206c656e677468206d69736d61746368455243313135353a2069647320616e6420616d6f756e7473206c656e677468206d69736d61746368455243313135353a206d696e7420746f20746865207a65726f2061646472657373a2646970667358221220433d2ed3e02d1385794124bd11ffec517f58c435f15f11979bdb3fecd5cdacae64736f6c63430007060033",
  "immutableReferences": {},
  "source": "// SPDX-License-Identifier: GPL-3.0\n/*\n *     Copyright (C) 2021 TART K.K.\n *\n *     This program is free software: you can redistribute it and/or modify\n *     it under the terms of the GNU General Public License as published by\n *     the Free Software Foundation, either version 3 of the License, or\n *     (at your option) any later version.\n *\n *     This program is distributed in the hope that it will be useful,\n *     but WITHOUT ANY WARRANTY; without even the implied warranty of\n *     MERCHANTABILITY or FITNESS FOR A PARTICULAR PURPOSE.  See the\n *     GNU General Public License for more details.\n *\n *     You should have received a copy of the GNU General Public License\n *     along with this program.  If not, see https://www.gnu.org/licenses/.\n */\n\npragma solidity =0.7.6;\n\nimport \"@iroiro/merkle-distributor/contracts/StringMerkleTreeManager.sol\";\nimport \"../interfaces/NFTDistributorInterfaceV1.sol\";\n\ncontract UUIDNFTDistributor is NFTDistributorInterfaceV1, StringMerkleTreeManager {\n    constructor (string memory _distributorInfoCid, string memory uri)\n    NFTDistributorInterfaceV1(_distributorInfoCid, uri) {}\n\n    function createCampaign(\n        bytes32 merkleRoot,\n        string memory merkleTreeCid,\n        string memory campaignInfoCid,\n        string memory nftMetadataCid\n    ) external override {\n        emit CreateCampaign(\n            nextTreeId,\n            msg.sender,\n            merkleTreeCid,\n            campaignInfoCid,\n            nftMetadataCid\n        );\n\n        addTree(merkleRoot);\n    }\n\n    function claim(\n        uint64 treeId,\n        uint256 index,\n        string calldata target,\n        uint256 amount,\n        bytes32[] calldata merkleProof\n    ) virtual external {\n        require(proof(treeId, index, target, amount, merkleProof));\n\n        _mint(msg.sender, uint256(treeId), amount, \"\");\n    }\n}\n",
  "sourcePath": "/Users/wildmouse/ghq/github.com/iroiro/iroiro/contract/contracts/distributors/UUIDNFT.sol",
  "compiler": {
    "name": "solc",
    "version": "0.7.6+commit.7338295f.Emscripten.clang"
  },
  "schemaVersion": "3.3.4",
  "updatedAt": "2021-03-18T06:31:43.979Z",
  "networkType": "ethereum",
  "devdoc": {
    "kind": "dev",
    "methods": {
      "balanceOf(address,uint256)": {
        "details": "See {IERC1155-balanceOf}. Requirements: - `account` cannot be the zero address."
      },
      "balanceOfBatch(address[],uint256[])": {
        "details": "See {IERC1155-balanceOfBatch}. Requirements: - `accounts` and `ids` must have the same length."
      },
      "isApprovedForAll(address,address)": {
        "details": "See {IERC1155-isApprovedForAll}."
      },
      "owner()": {
        "details": "Returns the address of the current owner."
      },
      "renounceOwnership()": {
        "details": "Leaves the contract without owner. It will not be possible to call `onlyOwner` functions anymore. Can only be called by the current owner. NOTE: Renouncing ownership will leave the contract without an owner, thereby removing any functionality that is only available to the owner."
      },
      "safeBatchTransferFrom(address,address,uint256[],uint256[],bytes)": {
        "details": "See {IERC1155-safeBatchTransferFrom}."
      },
      "safeTransferFrom(address,address,uint256,uint256,bytes)": {
        "details": "See {IERC1155-safeTransferFrom}."
      },
      "setApprovalForAll(address,bool)": {
        "details": "See {IERC1155-setApprovalForAll}."
      },
      "supportsInterface(bytes4)": {
        "details": "See {IERC165-supportsInterface}. Time complexity O(1), guaranteed to always use less than 30 000 gas."
      },
      "transferOwnership(address)": {
        "details": "Transfers ownership of the contract to a new account (`newOwner`). Can only be called by the current owner."
      },
      "uri(uint256)": {
        "details": "See {IERC1155MetadataURI-uri}. This implementation returns the same URI for *all* token types. It relies on the token type ID substitution mechanism https://eips.ethereum.org/EIPS/eip-1155#metadata[defined in the EIP]. Clients calling this function must replace the `\\{id\\}` substring with the actual token type ID."
      }
    },
    "version": 1
  },
  "userdoc": {
    "kind": "user",
    "methods": {},
    "version": 1
  }
}