{
  "contractName": "AudiusFollowersCampaign",
  "abi": [
    {
      "inputs": [
        {
          "internalType": "address payable",
          "name": "_token",
          "type": "address"
        },
        {
          "internalType": "string",
          "name": "_campaignInfoCid",
          "type": "string"
        },
        {
          "internalType": "string",
          "name": "_recipientsCid",
          "type": "string"
        },
        {
          "internalType": "uint256",
          "name": "_campaignId",
          "type": "uint256"
        },
        {
          "internalType": "uint256",
          "name": "_claimAmount",
          "type": "uint256"
        },
        {
          "internalType": "address",
          "name": "_refundDestination",
          "type": "address"
        },
        {
          "internalType": "uint256",
          "name": "_startDate",
          "type": "uint256"
        },
        {
          "internalType": "uint256",
          "name": "_endDate",
          "type": "uint256"
        },
        {
          "internalType": "address",
          "name": "_link",
          "type": "address"
        }
      ],
      "stateMutability": "nonpayable",
      "type": "constructor"
    },
    {
      "anonymous": false,
      "inputs": [
        {
          "indexed": true,
          "internalType": "bytes32",
          "name": "id",
          "type": "bytes32"
        }
      ],
      "name": "ChainlinkCancelled",
      "type": "event"
    },
    {
      "anonymous": false,
      "inputs": [
        {
          "indexed": true,
          "internalType": "bytes32",
          "name": "id",
          "type": "bytes32"
        }
      ],
      "name": "ChainlinkFulfilled",
      "type": "event"
    },
    {
      "anonymous": false,
      "inputs": [
        {
          "indexed": true,
          "internalType": "bytes32",
          "name": "id",
          "type": "bytes32"
        }
      ],
      "name": "ChainlinkRequested",
      "type": "event"
    },
    {
      "anonymous": false,
      "inputs": [
        {
          "indexed": true,
          "internalType": "address",
          "name": "to",
          "type": "address"
        }
      ],
      "name": "Claim",
      "type": "event"
    },
    {
      "anonymous": false,
      "inputs": [
        {
          "indexed": true,
          "internalType": "address",
          "name": "previousOwner",
          "type": "address"
        },
        {
          "indexed": true,
          "internalType": "address",
          "name": "newOwner",
          "type": "address"
        }
      ],
      "name": "OwnershipTransferred",
      "type": "event"
    },
    {
      "anonymous": false,
      "inputs": [],
      "name": "UpdateStatus",
      "type": "event"
    },
    {
      "inputs": [],
      "name": "campaignId",
      "outputs": [
        {
          "internalType": "uint256",
          "name": "",
          "type": "uint256"
        }
      ],
      "stateMutability": "view",
      "type": "function"
    },
    {
      "inputs": [],
      "name": "campaignInfoCid",
      "outputs": [
        {
          "internalType": "string",
          "name": "",
          "type": "string"
        }
      ],
      "stateMutability": "view",
      "type": "function"
    },
    {
      "inputs": [],
      "name": "cancelCampaign",
      "outputs": [],
      "stateMutability": "nonpayable",
      "type": "function"
    },
    {
      "inputs": [],
      "name": "claimAmount",
      "outputs": [
        {
          "internalType": "uint256",
          "name": "",
          "type": "uint256"
        }
      ],
      "stateMutability": "view",
      "type": "function"
    },
    {
      "inputs": [],
      "name": "claimedNum",
      "outputs": [
        {
          "internalType": "uint32",
          "name": "",
          "type": "uint32"
        }
      ],
      "stateMutability": "view",
      "type": "function"
    },
    {
      "inputs": [
        {
          "internalType": "address",
          "name": "",
          "type": "address"
        }
      ],
      "name": "claimedUserList",
      "outputs": [
        {
          "internalType": "bool",
          "name": "",
          "type": "bool"
        }
      ],
      "stateMutability": "view",
      "type": "function"
    },
    {
      "inputs": [],
      "name": "endDate",
      "outputs": [
        {
          "internalType": "uint256",
          "name": "",
          "type": "uint256"
        }
      ],
      "stateMutability": "view",
      "type": "function"
    },
    {
      "inputs": [],
      "name": "nextUserId",
      "outputs": [
        {
          "internalType": "uint64",
          "name": "",
          "type": "uint64"
        }
      ],
      "stateMutability": "view",
      "type": "function"
    },
    {
      "inputs": [],
      "name": "owner",
      "outputs": [
        {
          "internalType": "address",
          "name": "",
          "type": "address"
        }
      ],
      "stateMutability": "view",
      "type": "function"
    },
    {
      "inputs": [],
      "name": "recipientsCid",
      "outputs": [
        {
          "internalType": "string",
          "name": "",
          "type": "string"
        }
      ],
      "stateMutability": "view",
      "type": "function"
    },
    {
      "inputs": [],
      "name": "refundDestination",
      "outputs": [
        {
          "internalType": "address",
          "name": "",
          "type": "address"
        }
      ],
      "stateMutability": "view",
      "type": "function"
    },
    {
      "inputs": [],
      "name": "refundRemainingTokens",
      "outputs": [],
      "stateMutability": "nonpayable",
      "type": "function"
    },
    {
      "inputs": [],
      "name": "renounceOwnership",
      "outputs": [],
      "stateMutability": "nonpayable",
      "type": "function"
    },
    {
      "inputs": [],
      "name": "startDate",
      "outputs": [
        {
          "internalType": "uint256",
          "name": "",
          "type": "uint256"
        }
      ],
      "stateMutability": "view",
      "type": "function"
    },
    {
      "inputs": [],
      "name": "status",
      "outputs": [
        {
          "internalType": "enum CampaignInterface.Status",
          "name": "",
          "type": "uint8"
        }
      ],
      "stateMutability": "view",
      "type": "function"
    },
    {
      "inputs": [],
      "name": "token",
      "outputs": [
        {
          "internalType": "address payable",
          "name": "",
          "type": "address"
        }
      ],
      "stateMutability": "view",
      "type": "function"
    },
    {
      "inputs": [
        {
          "internalType": "address",
          "name": "newOwner",
          "type": "address"
        }
      ],
      "name": "transferOwnership",
      "outputs": [],
      "stateMutability": "nonpayable",
      "type": "function"
    },
    {
      "inputs": [
        {
          "internalType": "address",
          "name": "",
          "type": "address"
        }
      ],
      "name": "userIdList",
      "outputs": [
        {
          "internalType": "uint64",
          "name": "",
          "type": "uint64"
        }
      ],
      "stateMutability": "view",
      "type": "function"
    },
    {
      "inputs": [
        {
          "internalType": "uint64",
          "name": "userId",
          "type": "uint64"
        }
      ],
      "name": "generateClaimKey",
      "outputs": [
        {
          "internalType": "uint256",
          "name": "",
          "type": "uint256"
        }
      ],
      "stateMutability": "pure",
      "type": "function"
    },
    {
      "inputs": [
        {
          "internalType": "address",
          "name": "user",
          "type": "address"
        }
      ],
      "name": "isClaimable",
      "outputs": [
        {
          "internalType": "bool",
          "name": "",
          "type": "bool"
        }
      ],
      "stateMutability": "view",
      "type": "function"
    },
    {
      "inputs": [],
      "name": "claim",
      "outputs": [],
      "stateMutability": "nonpayable",
      "type": "function"
    },
    {
      "inputs": [
        {
          "internalType": "bytes32",
          "name": "_requestId",
          "type": "bytes32"
        },
        {
          "internalType": "bytes32",
          "name": "data",
          "type": "bytes32"
        }
      ],
      "name": "fulfill",
      "outputs": [],
      "stateMutability": "nonpayable",
      "type": "function"
    },
    {
      "inputs": [
        {
          "internalType": "address",
          "name": "_oracle",
          "type": "address"
        },
        {
          "internalType": "bytes32",
          "name": "_jobId",
          "type": "bytes32"
        },
        {
          "internalType": "uint256",
          "name": "fee",
          "type": "uint256"
        },
        {
          "internalType": "string",
          "name": "userAddress",
          "type": "string"
        }
      ],
      "name": "requestCheckingIsClaimable",
      "outputs": [
        {
          "internalType": "bytes32",
          "name": "requestId",
          "type": "bytes32"
        }
      ],
      "stateMutability": "nonpayable",
      "type": "function"
    },
    {
      "inputs": [],
      "name": "withdrawLink",
      "outputs": [],
      "stateMutability": "nonpayable",
      "type": "function"
    },
    {
      "inputs": [
        {
          "internalType": "bytes32",
          "name": "_requestId",
          "type": "bytes32"
        },
        {
          "internalType": "uint256",
          "name": "_payment",
          "type": "uint256"
        },
        {
          "internalType": "bytes4",
          "name": "_callbackFunctionId",
          "type": "bytes4"
        },
        {
          "internalType": "uint256",
          "name": "_expiration",
          "type": "uint256"
        }
      ],
      "name": "cancelRequest",
      "outputs": [],
      "stateMutability": "nonpayable",
      "type": "function"
    }
  ],
  "bytecode": "0x608060405260016004556000600c60006101000a81548163ffffffff021916908363ffffffff1602179055506000600f60006101000a81548160ff021916908360028111156200004b57fe5b02179055506001600f60016101000a81548167ffffffffffffffff021916908367ffffffffffffffff1602179055503480156200008757600080fd5b50604051620036bf380380620036bf8339818101604052610120811015620000ae57600080fd5b810190808051906020019092919080516040519392919084640100000000821115620000d957600080fd5b83820191506020820185811115620000f057600080fd5b82518660018202830111640100000000821117156200010e57600080fd5b8083526020830192505050908051906020019080838360005b838110156200014457808201518184015260208101905062000127565b50505050905090810190601f168015620001725780820380516001836020036101000a031916815260200191505b50604052602001805160405193929190846401000000008211156200019657600080fd5b83820191506020820185811115620001ad57600080fd5b8251866001820283011164010000000082111715620001cb57600080fd5b8083526020830192505050908051906020019080838360005b8381101562000201578082015181840152602081019050620001e4565b50505050905090810190601f1680156200022f5780820380516001836020036101000a031916815260200191505b50604052602001805190602001909291908051906020019092919080519060200190929190805190602001909291908051906020019092919080519060200190929190505050888888888888888888600062000290620004cf60201b60201c565b905080600660006101000a81548173ffffffffffffffffffffffffffffffffffffffff021916908373ffffffffffffffffffffffffffffffffffffffff1602179055508073ffffffffffffffffffffffffffffffffffffffff16600073ffffffffffffffffffffffffffffffffffffffff167f8be0079c531659141344cd1fd0a4f28419497f9722a3daafe3b4186f6b6457e060405160405180910390a35081831062000389576040517f08c379a00000000000000000000000000000000000000000000000000000000081526004018080602001828103825260258152602001806200369a6025913960400191505060405180910390fd5b88600760006101000a81548173ffffffffffffffffffffffffffffffffffffffff021916908373ffffffffffffffffffffffffffffffffffffffff1602179055508760089080519060200190620003e2929190620005c5565b508660099080519060200190620003fb929190620005c5565b5085600a8190555084600b8190555083600c60046101000a81548173ffffffffffffffffffffffffffffffffffffffff021916908373ffffffffffffffffffffffffffffffffffffffff16021790555082600d8190555081600e81905550600073ffffffffffffffffffffffffffffffffffffffff168173ffffffffffffffffffffffffffffffffffffffff161415620004a5576200049f620004d760201b60201c565b620004b7565b620004b6816200058160201b60201c565b5b5050505050505050505050505050505050506200066b565b600033905090565b6200057f73c89bd4e1632d3a43cb03aaad5262cbe4038bc57173ffffffffffffffffffffffffffffffffffffffff166338cc48316040518163ffffffff1660e01b815260040160206040518083038186803b1580156200053657600080fd5b505afa1580156200054b573d6000803e3d6000fd5b505050506040513d60208110156200056257600080fd5b81019080805190602001909291905050506200058160201b60201c565b565b80600260006101000a81548173ffffffffffffffffffffffffffffffffffffffff021916908373ffffffffffffffffffffffffffffffffffffffff16021790555050565b828054600181600116156101000203166002900490600052602060002090601f016020900481019282601f106200060857805160ff191683800117855562000639565b8280016001018555821562000639579182015b82811115620006385782518255916020019190600101906200061b565b5b5090506200064891906200064c565b5090565b5b80821115620006675760008160009055506001016200064d565b5090565b61301f806200067b6000396000f3fe608060405234801561001057600080fd5b50600436106101725760003560e01c80638da5cb5b116100de578063b2c67c3311610097578063ec65d0f811610071578063ec65d0f81461063f578063f2fde38b146106aa578063f48655f1146106ee578063fc0c546a1461075057610172565b8063b2c67c33146104c4578063c24a0f8b1461051e578063e7dedd451461053c57610172565b80638da5cb5b146104025780638dc654a2146104365780638ed5b0fc14610440578063980e78441461045e578063a1e6a25514610468578063b06633fa1461049057610172565b80634bbf545b116101305780634bbf545b1461031f5780634e71d92d14610343578063715018a61461034d5780637864e73514610357578063830953ab146103615780638d1e55e91461037f57610172565b8062acccbc14610177578063042f2b65146101fa5780630b97bc8614610232578063200d2ed214610250578063292fec0414610279578063474c2ad6146102d3575b600080fd5b61017f610784565b6040518080602001828103825283818151815260200191508051906020019080838360005b838110156101bf5780820151818401526020810190506101a4565b50505050905090810190601f1680156101ec5780820380516001836020036101000a031916815260200191505b509250505060405180910390f35b6102306004803603604081101561021057600080fd5b810190808035906020019092919080359060200190929190505050610822565b005b61023a61096e565b6040518082815260200191505060405180910390f35b610258610974565b6040518082600281111561026857fe5b815260200191505060405180910390f35b6102bb6004803603602081101561028f57600080fd5b81019080803573ffffffffffffffffffffffffffffffffffffffff169060200190929190505050610987565b60405180821515815260200191505060405180910390f35b610309600480360360208110156102e957600080fd5b81019080803567ffffffffffffffff169060200190929190505050610abd565b6040518082815260200191505060405180910390f35b610327610ad7565b604051808263ffffffff16815260200191505060405180910390f35b61034b610aed565b005b610355610e66565b005b61035f610ff1565b005b61036961131c565b6040518082815260200191505060405180910390f35b610387611322565b6040518080602001828103825283818151815260200191508051906020019080838360005b838110156103c75780820151818401526020810190506103ac565b50505050905090810190601f1680156103f45780820380516001836020036101000a031916815260200191505b509250505060405180910390f35b61040a6113c0565b604051808273ffffffffffffffffffffffffffffffffffffffff16815260200191505060405180910390f35b61043e6113ea565b005b610448611682565b6040518082815260200191505060405180910390f35b610466611688565b005b6104706119b3565b604051808267ffffffffffffffff16815260200191505060405180910390f35b6104986119cd565b604051808273ffffffffffffffffffffffffffffffffffffffff16815260200191505060405180910390f35b610506600480360360208110156104da57600080fd5b81019080803573ffffffffffffffffffffffffffffffffffffffff1690602001909291905050506119f3565b60405180821515815260200191505060405180910390f35b610526611a13565b6040518082815260200191505060405180910390f35b6106296004803603608081101561055257600080fd5b81019080803573ffffffffffffffffffffffffffffffffffffffff1690602001909291908035906020019092919080359060200190929190803590602001906401000000008111156105a357600080fd5b8201836020820111156105b557600080fd5b803590602001918460018302840111640100000000831117156105d757600080fd5b91908080601f016020809104026020016040519081016040528093929190818152602001838380828437600081840152601f19601f820116905080830192505050505050509192919290505050611a19565b6040518082815260200191505060405180910390f35b6106a86004803603608081101561065557600080fd5b81019080803590602001909291908035906020019092919080357bffffffffffffffffffffffffffffffffffffffffffffffffffffffff191690602001909291908035906020019092919050505061207b565b005b6106ec600480360360208110156106c057600080fd5b81019080803573ffffffffffffffffffffffffffffffffffffffff169060200190929190505050612157565b005b6107306004803603602081101561070457600080fd5b81019080803573ffffffffffffffffffffffffffffffffffffffff169060200190929190505050612367565b604051808267ffffffffffffffff16815260200191505060405180910390f35b61075861238e565b604051808273ffffffffffffffffffffffffffffffffffffffff16815260200191505060405180910390f35b60098054600181600116156101000203166002900480601f01602080910402602001604051908101604052809291908181526020018280546001816001161561010002031660029004801561081a5780601f106107ef5761010080835404028352916020019161081a565b820191906000526020600020905b8154815290600101906020018083116107fd57829003601f168201915b505050505081565b816005600082815260200190815260200160002060009054906101000a900473ffffffffffffffffffffffffffffffffffffffff1673ffffffffffffffffffffffffffffffffffffffff163373ffffffffffffffffffffffffffffffffffffffff16146108da576040517f08c379a0000000000000000000000000000000000000000000000000000000008152600401808060200182810382526028815260200180612fc26028913960400191505060405180910390fd5b6005600082815260200190815260200160002060006101000a81549073ffffffffffffffffffffffffffffffffffffffff0219169055807f7cc135e0cebb02c3480ae5d74d377283180a2601f8f644edf7987b009316c63a60405160405180910390a260016012600084815260200190815260200160002060006101000a81548160ff021916908315150217905550505050565b600d5481565b600f60009054906101000a900460ff1681565b600080601060008473ffffffffffffffffffffffffffffffffffffffff1673ffffffffffffffffffffffffffffffffffffffff16815260200190815260200160002060009054906101000a900467ffffffffffffffff16905060008167ffffffffffffffff1614156109fd576000915050610ab8565b601160008473ffffffffffffffffffffffffffffffffffffffff1673ffffffffffffffffffffffffffffffffffffffff16815260200190815260200160002060009054906101000a900460ff1615610a59576000915050610ab8565b6000610a6482610abd565b9050600081604051602001808281526020019150506040516020818303038152906040528051906020012090506012600082815260200190815260200160002060009054906101000a900460ff1693505050505b919050565b60006001600a8367ffffffffffffffff1602019050919050565b600c60009054906101000a900463ffffffff1681565b60006002811115610afa57fe5b600f60009054906101000a900460ff166002811115610b1557fe5b14610b88576040517f08c379a00000000000000000000000000000000000000000000000000000000081526004018080602001828103825260168152602001807f43616d706169676e206973206e6f74206163746976650000000000000000000081525060200191505060405180910390fd5b42600d541115610c00576040517f08c379a000000000000000000000000000000000000000000000000000000000815260040180806020018281038252601b8152602001807f43616d706169676e206973206e6f74207374617274656420796574000000000081525060200191505060405180910390fd5b600e544210610c77576040517f08c379a00000000000000000000000000000000000000000000000000000000081526004018080602001828103825260148152602001807f43616d706169676e2069732066696e697368656400000000000000000000000081525060200191505060405180910390fd5b610c8033610987565b610cf2576040517f08c379a00000000000000000000000000000000000000000000000000000000081526004018080602001828103825260168152602001807f546f6b656e206973206e6f7420636c61696d61626c650000000000000000000081525060200191505060405180910390fd5b6001601160003373ffffffffffffffffffffffffffffffffffffffff1673ffffffffffffffffffffffffffffffffffffffff16815260200190815260200160002060006101000a81548160ff0219169083151502179055506000600760009054906101000a900473ffffffffffffffffffffffffffffffffffffffff1690508073ffffffffffffffffffffffffffffffffffffffff1663a9059cbb33600b546040518363ffffffff1660e01b8152600401808373ffffffffffffffffffffffffffffffffffffffff16815260200182815260200192505050602060405180830381600087803b158015610de457600080fd5b505af1158015610df8573d6000803e3d6000fd5b505050506040513d6020811015610e0e57600080fd5b8101908080519060200190929190505050503373ffffffffffffffffffffffffffffffffffffffff167f0c7ef932d3b91976772937f18d5ef9b39a9930bef486b576c374f047c4b512dc60405160405180910390a250565b610e6e6123b4565b73ffffffffffffffffffffffffffffffffffffffff16600660009054906101000a900473ffffffffffffffffffffffffffffffffffffffff1673ffffffffffffffffffffffffffffffffffffffff1614610f30576040517f08c379a00000000000000000000000000000000000000000000000000000000081526004018080602001828103825260208152602001807f4f776e61626c653a2063616c6c6572206973206e6f7420746865206f776e657281525060200191505060405180910390fd5b600073ffffffffffffffffffffffffffffffffffffffff16600660009054906101000a900473ffffffffffffffffffffffffffffffffffffffff1673ffffffffffffffffffffffffffffffffffffffff167f8be0079c531659141344cd1fd0a4f28419497f9722a3daafe3b4186f6b6457e060405160405180910390a36000600660006101000a81548173ffffffffffffffffffffffffffffffffffffffff021916908373ffffffffffffffffffffffffffffffffffffffff160217905550565b610ff96123b4565b73ffffffffffffffffffffffffffffffffffffffff16600660009054906101000a900473ffffffffffffffffffffffffffffffffffffffff1673ffffffffffffffffffffffffffffffffffffffff16146110bb576040517f08c379a00000000000000000000000000000000000000000000000000000000081526004018080602001828103825260208152602001807f4f776e61626c653a2063616c6c6572206973206e6f7420746865206f776e657281525060200191505060405180910390fd5b42600e5410611132576040517f08c379a00000000000000000000000000000000000000000000000000000000081526004018080602001828103825260198152602001807f43616d706169676e206973206e6f7420656e646564207965740000000000000081525060200191505060405180910390fd5b6002600f60006101000a81548160ff0219169083600281111561115157fe5b02179055506000600760009054906101000a900473ffffffffffffffffffffffffffffffffffffffff1690508073ffffffffffffffffffffffffffffffffffffffff1663a9059cbb600c60049054906101000a900473ffffffffffffffffffffffffffffffffffffffff168373ffffffffffffffffffffffffffffffffffffffff166370a08231306040518263ffffffff1660e01b8152600401808273ffffffffffffffffffffffffffffffffffffffff16815260200191505060206040518083038186803b15801561122357600080fd5b505afa158015611237573d6000803e3d6000fd5b505050506040513d602081101561124d57600080fd5b81019080805190602001909291905050506040518363ffffffff1660e01b8152600401808373ffffffffffffffffffffffffffffffffffffffff16815260200182815260200192505050602060405180830381600087803b1580156112b157600080fd5b505af11580156112c5573d6000803e3d6000fd5b505050506040513d60208110156112db57600080fd5b8101908080519060200190929190505050507ff1a4f7af7ee628980477c1cfcce6c7e00a2d08730fcc70cdd17ab241a457f54d60405160405180910390a150565b600b5481565b60088054600181600116156101000203166002900480601f0160208091040260200160405190810160405280929190818152602001828054600181600116156101000203166002900480156113b85780601f1061138d576101008083540402835291602001916113b8565b820191906000526020600020905b81548152906001019060200180831161139b57829003601f168201915b505050505081565b6000600660009054906101000a900473ffffffffffffffffffffffffffffffffffffffff16905090565b6113f26123b4565b73ffffffffffffffffffffffffffffffffffffffff16600660009054906101000a900473ffffffffffffffffffffffffffffffffffffffff1673ffffffffffffffffffffffffffffffffffffffff16146114b4576040517f08c379a00000000000000000000000000000000000000000000000000000000081526004018080602001828103825260208152602001807f4f776e61626c653a2063616c6c6572206973206e6f7420746865206f776e657281525060200191505060405180910390fd5b60006114be6123bc565b90508073ffffffffffffffffffffffffffffffffffffffff1663a9059cbb338373ffffffffffffffffffffffffffffffffffffffff166370a08231306040518263ffffffff1660e01b8152600401808273ffffffffffffffffffffffffffffffffffffffff16815260200191505060206040518083038186803b15801561154457600080fd5b505afa158015611558573d6000803e3d6000fd5b505050506040513d602081101561156e57600080fd5b81019080805190602001909291905050506040518363ffffffff1660e01b8152600401808373ffffffffffffffffffffffffffffffffffffffff16815260200182815260200192505050602060405180830381600087803b1580156115d257600080fd5b505af11580156115e6573d6000803e3d6000fd5b505050506040513d60208110156115fc57600080fd5b810190808051906020019092919050505061167f576040517f08c379a00000000000000000000000000000000000000000000000000000000081526004018080602001828103825260128152602001807f556e61626c6520746f207472616e73666572000000000000000000000000000081525060200191505060405180910390fd5b50565b600a5481565b6116906123b4565b73ffffffffffffffffffffffffffffffffffffffff16600660009054906101000a900473ffffffffffffffffffffffffffffffffffffffff1673ffffffffffffffffffffffffffffffffffffffff1614611752576040517f08c379a00000000000000000000000000000000000000000000000000000000081526004018080602001828103825260208152602001807f4f776e61626c653a2063616c6c6572206973206e6f7420746865206f776e657281525060200191505060405180910390fd5b600d5442106117c9576040517f08c379a000000000000000000000000000000000000000000000000000000000815260040180806020018281038252601b8152602001807f43616d706169676e20697320616c72656164792073746172746564000000000081525060200191505060405180910390fd5b6001600f60006101000a81548160ff021916908360028111156117e857fe5b02179055506000600760009054906101000a900473ffffffffffffffffffffffffffffffffffffffff1690508073ffffffffffffffffffffffffffffffffffffffff1663a9059cbb600c60049054906101000a900473ffffffffffffffffffffffffffffffffffffffff168373ffffffffffffffffffffffffffffffffffffffff166370a08231306040518263ffffffff1660e01b8152600401808273ffffffffffffffffffffffffffffffffffffffff16815260200191505060206040518083038186803b1580156118ba57600080fd5b505afa1580156118ce573d6000803e3d6000fd5b505050506040513d60208110156118e457600080fd5b81019080805190602001909291905050506040518363ffffffff1660e01b8152600401808373ffffffffffffffffffffffffffffffffffffffff16815260200182815260200192505050602060405180830381600087803b15801561194857600080fd5b505af115801561195c573d6000803e3d6000fd5b505050506040513d602081101561197257600080fd5b8101908080519060200190929190505050507ff1a4f7af7ee628980477c1cfcce6c7e00a2d08730fcc70cdd17ab241a457f54d60405160405180910390a150565b600f60019054906101000a900467ffffffffffffffff1681565b600c60049054906101000a900473ffffffffffffffffffffffffffffffffffffffff1681565b60116020528060005260406000206000915054906101000a900460ff1681565b600e5481565b600060405160200180600001905060405160208183030381529060405280519060200120826040516020018082805190602001908083835b60208310611a745780518252602082019150602081019050602083039250611a51565b6001836020036101000a038019825116818451168082178552505050505050905001915050604051602081830303815290604052805190602001201415611b23576040517f08c379a000000000000000000000000000000000000000000000000000000000815260040180806020018281038252601f8152602001807f5573657220616464726573732073686f756c646e277420626520656d7074790081525060200191505060405180910390fd5b6000611b2d6123bc565b9050838173ffffffffffffffffffffffffffffffffffffffff1663dd62ed3e33306040518363ffffffff1660e01b8152600401808373ffffffffffffffffffffffffffffffffffffffff1681526020018273ffffffffffffffffffffffffffffffffffffffff1681526020019250505060206040518083038186803b158015611bb557600080fd5b505afa158015611bc9573d6000803e3d6000fd5b505050506040513d6020811015611bdf57600080fd5b81019080805190602001909291905050501015611c64576040517f08c379a00000000000000000000000000000000000000000000000000000000081526004018080602001828103825260178152602001807f616c6c6f77616e6365206973206e6f7420656e6f75676800000000000000000081525060200191505060405180910390fd5b8073ffffffffffffffffffffffffffffffffffffffff166323b872dd3330876040518463ffffffff1660e01b8152600401808473ffffffffffffffffffffffffffffffffffffffff1681526020018373ffffffffffffffffffffffffffffffffffffffff1681526020018281526020019350505050602060405180830381600087803b158015611cf357600080fd5b505af1158015611d07573d6000803e3d6000fd5b505050506040513d6020811015611d1d57600080fd5b810190808051906020019092919050505050600080601060003373ffffffffffffffffffffffffffffffffffffffff1673ffffffffffffffffffffffffffffffffffffffff16815260200190815260200160002060009054906101000a900467ffffffffffffffff1667ffffffffffffffff161415611e7657600f60019054906101000a900467ffffffffffffffff16905080601060003373ffffffffffffffffffffffffffffffffffffffff1673ffffffffffffffffffffffffffffffffffffffff16815260200190815260200160002060006101000a81548167ffffffffffffffff021916908367ffffffffffffffff160217905550611e496001600f60019054906101000a900467ffffffffffffffff1667ffffffffffffffff166123e690919063ffffffff16565b600f60016101000a81548167ffffffffffffffff021916908367ffffffffffffffff160217905550611ecd565b601060003373ffffffffffffffffffffffffffffffffffffffff1673ffffffffffffffffffffffffffffffffffffffff16815260200190815260200160002060009054906101000a900467ffffffffffffffff1690505b611ed5612ef1565b611ee7873063042f2b6560e01b612482565b9050611fcd6040518060400160405280600381526020017f636964000000000000000000000000000000000000000000000000000000000081525060098054600181600116156101000203166002900480601f016020809104026020016040519081016040528092919081815260200182805460018160011615610100020316600290048015611fb85780601f10611f8d57610100808354040283529160200191611fb8565b820191906000526020600020905b815481529060010190602001808311611f9b57829003601f168201915b5050505050836124b39092919063ffffffff16565b6120176040518060400160405280600b81526020017f757365724164647265737300000000000000000000000000000000000000000081525086836124b39092919063ffffffff16565b6120636040518060400160405280600a81526020017f63616d706169676e496400000000000000000000000000000000000000000000815250600a54836124e69092919063ffffffff16565b61206e888288612519565b9350505050949350505050565b6120836123b4565b73ffffffffffffffffffffffffffffffffffffffff16600660009054906101000a900473ffffffffffffffffffffffffffffffffffffffff1673ffffffffffffffffffffffffffffffffffffffff1614612145576040517f08c379a00000000000000000000000000000000000000000000000000000000081526004018080602001828103825260208152602001807f4f776e61626c653a2063616c6c6572206973206e6f7420746865206f776e657281525060200191505060405180910390fd5b612151848484846127a2565b50505050565b61215f6123b4565b73ffffffffffffffffffffffffffffffffffffffff16600660009054906101000a900473ffffffffffffffffffffffffffffffffffffffff1673ffffffffffffffffffffffffffffffffffffffff1614612221576040517f08c379a00000000000000000000000000000000000000000000000000000000081526004018080602001828103825260208152602001807f4f776e61626c653a2063616c6c6572206973206e6f7420746865206f776e657281525060200191505060405180910390fd5b600073ffffffffffffffffffffffffffffffffffffffff168173ffffffffffffffffffffffffffffffffffffffff1614156122a7576040517f08c379a0000000000000000000000000000000000000000000000000000000008152600401808060200182810382526026815260200180612f796026913960400191505060405180910390fd5b8073ffffffffffffffffffffffffffffffffffffffff16600660009054906101000a900473ffffffffffffffffffffffffffffffffffffffff1673ffffffffffffffffffffffffffffffffffffffff167f8be0079c531659141344cd1fd0a4f28419497f9722a3daafe3b4186f6b6457e060405160405180910390a380600660006101000a81548173ffffffffffffffffffffffffffffffffffffffff021916908373ffffffffffffffffffffffffffffffffffffffff16021790555050565b60106020528060005260406000206000915054906101000a900467ffffffffffffffff1681565b600760009054906101000a900473ffffffffffffffffffffffffffffffffffffffff1681565b600033905090565b6000600260009054906101000a900473ffffffffffffffffffffffffffffffffffffffff16905090565b60008082840190508367ffffffffffffffff168167ffffffffffffffff161015612478576040517f08c379a000000000000000000000000000000000000000000000000000000000815260040180806020018281038252601b8152602001807f536166654d6174683a206164646974696f6e206f766572666c6f77000000000081525060200191505060405180910390fd5b8091505092915050565b61248a612ef1565b612492612ef1565b6124a9858585846128e6909392919063ffffffff16565b9150509392505050565b6124ca82846080015161299690919063ffffffff16565b6124e181846080015161299690919063ffffffff16565b505050565b6124fd82846080015161299690919063ffffffff16565b6125148184608001516129bb90919063ffffffff16565b505050565b600030600454604051602001808373ffffffffffffffffffffffffffffffffffffffff1660601b815260140182815260200192505050604051602081830303815290604052805190602001209050600454836060018181525050836005600083815260200190815260200160002060006101000a81548173ffffffffffffffffffffffffffffffffffffffff021916908373ffffffffffffffffffffffffffffffffffffffff160217905550807fb5e6e01e79f91267dc17b4e6314d5d4d03593d2ceee0fbb452b750bd70ea5af960405160405180910390a2600260009054906101000a900473ffffffffffffffffffffffffffffffffffffffff1673ffffffffffffffffffffffffffffffffffffffff16634000aea0858461263b876129cb565b6040518463ffffffff1660e01b8152600401808473ffffffffffffffffffffffffffffffffffffffff16815260200183815260200180602001828103825283818151815260200191508051906020019080838360005b838110156126ac578082015181840152602081019050612691565b50505050905090810190601f1680156126d95780820380516001836020036101000a031916815260200191505b50945050505050602060405180830381600087803b1580156126fa57600080fd5b505af115801561270e573d6000803e3d6000fd5b505050506040513d602081101561272457600080fd5b810190808051906020019092919050505061278a576040517f08c379a0000000000000000000000000000000000000000000000000000000008152600401808060200182810382526023815260200180612f9f6023913960400191505060405180910390fd5b60016004600082825401925050819055509392505050565b60006005600086815260200190815260200160002060009054906101000a900473ffffffffffffffffffffffffffffffffffffffff1690506005600086815260200190815260200160002060006101000a81549073ffffffffffffffffffffffffffffffffffffffff0219169055847fe1fe3afa0f7f761ff0a8b89086790efd5140d2907ebd5b7ff6bfcb5e075fd4c560405160405180910390a28073ffffffffffffffffffffffffffffffffffffffff16636ee4d553868686866040518563ffffffff1660e01b815260040180858152602001848152602001837bffffffffffffffffffffffffffffffffffffffffffffffffffffffff19168152602001828152602001945050505050600060405180830381600087803b1580156128c757600080fd5b505af11580156128db573d6000803e3d6000fd5b505050505050505050565b6128ee612ef1565b6128fe8560800151610100612b4c565b508385600001818152505082856020019073ffffffffffffffffffffffffffffffffffffffff16908173ffffffffffffffffffffffffffffffffffffffff16815250508185604001907bffffffffffffffffffffffffffffffffffffffffffffffffffffffff191690817bffffffffffffffffffffffffffffffffffffffffffffffffffffffff191681525050849050949350505050565b6129a38260038351612ba0565b6129b68183612ce590919063ffffffff16565b505050565b6129c782600083612ba0565b5050565b6060634042994660e01b60008084600001518560200151866040015187606001516001896080015160000151604051602401808973ffffffffffffffffffffffffffffffffffffffff1681526020018881526020018781526020018673ffffffffffffffffffffffffffffffffffffffff168152602001857bffffffffffffffffffffffffffffffffffffffffffffffffffffffff1916815260200184815260200183815260200180602001828103825283818151815260200191508051906020019080838360005b83811015612aaf578082015181840152602081019050612a94565b50505050905090810190601f168015612adc5780820380516001836020036101000a031916815260200191505b509950505050505050505050604051602081830303815290604052907bffffffffffffffffffffffffffffffffffffffffffffffffffffffff19166020820180517bffffffffffffffffffffffffffffffffffffffffffffffffffffffff83818316178352505050509050919050565b612b54612f5e565b600060208381612b6057fe5b0614612b795760208281612b7057fe5b06602003820191505b81836020018181525050604051808452600081528281016020016040525082905092915050565b60178111612bcd57612bc78160058460ff16901b60ff161784612d0790919063ffffffff16565b50612ce0565b60ff8111612c0f57612bf2601860058460ff16901b1784612d0790919063ffffffff16565b50612c0981600185612d279092919063ffffffff16565b50612cdf565b61ffff8111612c5257612c35601960058460ff16901b1784612d0790919063ffffffff16565b50612c4c81600285612d279092919063ffffffff16565b50612cde565b63ffffffff8111612c9757612c7a601a60058460ff16901b1784612d0790919063ffffffff16565b50612c9181600485612d279092919063ffffffff16565b50612cdd565b67ffffffffffffffff8111612cdc57612cc3601b60058460ff16901b1784612d0790919063ffffffff16565b50612cda81600885612d279092919063ffffffff16565b505b5b5b5b5b505050565b612ced612f5e565b612cff83846000015151848551612d49565b905092915050565b612d0f612f5e565b612d1f8384600001515184612e02565b905092915050565b612d2f612f5e565b612d40848560000151518585612e50565b90509392505050565b612d51612f5e565b8251821115612d5f57600080fd5b84602001518285011115612d8a57612d89856002612d838860200151888701612eb1565b02612ecd565b5b600080865180518760208301019350808887011115612da95787860182525b60208701925050505b60208410612dd55780518252602082019150602081019050602084039350612db2565b60006001856020036101000a03905080198251168184511681811785525050879350505050949350505050565b612e0a612f5e565b83602001518310612e2757612e26846002866020015102612ecd565b5b8351805160208583010184815381861415612e43576001820183525b5050508390509392505050565b612e58612f5e565b84602001518483011115612e7657612e7585600286850102612ecd565b5b60006001836101000a0390508551838682010185831982511617815281518588011115612ea35784870182525b505085915050949350505050565b600081831115612ec357829050612ec7565b8190505b92915050565b606082600001519050612ee08383612b4c565b50612eeb8382612ce5565b50505050565b6040518060a0016040528060008019168152602001600073ffffffffffffffffffffffffffffffffffffffff16815260200160007bffffffffffffffffffffffffffffffffffffffffffffffffffffffff1916815260200160008152602001612f58612f5e565b81525090565b60405180604001604052806060815260200160008152509056fe4f776e61626c653a206e6577206f776e657220697320746865207a65726f2061646472657373756e61626c6520746f207472616e73666572416e6443616c6c20746f206f7261636c65536f75726365206d75737420626520746865206f7261636c65206f66207468652072657175657374a26469706673582212200865835a845e0d64035887bdc12480d1f3216b79e0ad208f6ef1937503f03c0764736f6c634300060c003353746172742064617461206d757374206265206c657373207468616e20656e642064617465",
  "immutableReferences": {},
  "source": "// SPDX-License-Identifier: UNLICENSED\npragma solidity ^0.6.0;\n\nimport \"../../NewInterfaces.sol\";\nimport \"@openzeppelin/contracts/token/ERC20/ERC20.sol\";\nimport \"@chainlink/contracts/src/v0.6/interfaces/LinkTokenInterface.sol\";\nimport \"../../SafeMath64.sol\";\n\ncontract AudiusFollowersDistributor is DistributorInterface {\n    constructor (string memory _distributorInfoCid, address _link) public\n    DistributorInterface(_distributorInfoCid, _link) {}\n\n    function createCampaign(\n        address payable token,\n        address tokenSender,\n        string memory campaignInfoCid,\n        string memory recipientsCid,\n        uint32 recipientsNum,\n        uint256 startDate,\n        uint256 endDate\n    ) public override {\n        // TODO Update checking tokenSender logic with token issuance phase\n        require(msg.sender == tokenSender, \"Token holder must match to msg.sender\");\n        uint256 allowance = getAllowanceOf(token, tokenSender);\n        require(allowance > 0, \"No token is approved to transfer\");\n        require(allowance >= recipientsNum, \"Token amount is not enough to distribute\");\n\n        uint256 claimAmount = calculateClaimAmount(allowance, recipientsNum);\n        AudiusFollowersCampaign campaign = new AudiusFollowersCampaign(\n            token,\n            campaignInfoCid,\n            recipientsCid,\n            nextCampaignId,\n            claimAmount,\n            tokenSender,\n            startDate,\n            endDate,\n            link\n        );\n        transferToken(token, tokenSender, address(campaign), allowance);\n        campaignList[nextCampaignId] = address(campaign);\n        nextCampaignId = nextCampaignId.add(1);\n        campaign.transferOwnership(msg.sender);\n\n        emit CreateCampaign(\n            address(campaign),\n            token,\n            msg.sender\n        );\n    }\n}\n\ncontract AudiusFollowersCampaign is CampaignInterface {\n    using SafeMath64 for uint64;\n\n    uint64 public nextUserId = 1;\n    mapping(address => uint64) public userIdList;\n    mapping(address => bool) public claimedUserList;\n    mapping(bytes32 => bool) private claimKeyHashList;\n\n    // TODO Integrate with parent constructor\n    constructor(\n        address payable _token,\n        string memory _campaignInfoCid,\n        string memory _recipientsCid,\n        uint256 _campaignId,\n        uint256 _claimAmount,\n        address _refundDestination,\n        uint256 _startDate,\n        uint256 _endDate,\n        address _link\n    ) public CampaignInterface(\n        _token,\n        _campaignInfoCid,\n        _recipientsCid,\n        _campaignId,\n        _claimAmount,\n        _refundDestination,\n        _startDate,\n        _endDate,\n        _link\n    ) {}\n\n    function generateClaimKey(uint64 userId) public pure returns (uint256){\n        return uint256(userId) * 10 + 1;\n        // 1 as true\n    }\n\n    function isClaimable(address user) public view override returns (bool) {\n        uint64 userId = userIdList[user];\n        if (userId == 0) {\n            return false;\n        }\n        if (claimedUserList[user]) {\n            return false;\n        }\n        uint256 claimKey = generateClaimKey(userId);\n        bytes32 claimKeyHash = keccak256(abi.encodePacked(claimKey));\n        return claimKeyHashList[claimKeyHash];\n    }\n\n    function claim() external override mustBeActive inTime {\n        require(isClaimable(msg.sender), \"Token is not claimable\");\n\n        claimedUserList[msg.sender] = true;\n        ERC20 erc20 = ERC20(token);\n        erc20.transfer(msg.sender, claimAmount);\n\n        emit Claim(msg.sender);\n    }\n\n    function fulfill(bytes32 _requestId, bytes32 data) public recordChainlinkFulfillment(_requestId) {\n        claimKeyHashList[data] = true;\n    }\n\n    function requestCheckingIsClaimable(\n        address _oracle,\n        bytes32 _jobId,\n        uint256 fee,\n        string memory userAddress\n    ) external returns (bytes32 requestId) {\n        require(\n            keccak256(abi.encodePacked(userAddress)) != keccak256(abi.encodePacked(\"\")),\n            \"User address shouldn't be empty\"\n        );\n        LinkTokenInterface link = LinkTokenInterface(chainlinkTokenAddress());\n        require(link.allowance(msg.sender, address(this)) >= fee, \"allowance is not enough\");\n        link.transferFrom(msg.sender, address(this), fee);\n\n        uint64 userId;\n        if (userIdList[msg.sender] == 0) {\n            userId = nextUserId;\n            userIdList[msg.sender] = userId;\n            nextUserId = nextUserId.add(1);\n        } else {\n            userId = userIdList[msg.sender];\n        }\n\n        Chainlink.Request memory request = buildChainlinkRequest(_jobId, address(this), this.fulfill.selector);\n        request.add(\"cid\", recipientsCid);\n        request.add(\"userAddress\", userAddress);\n        request.addUint(\"campaignId\", campaignId);\n\n        return sendChainlinkRequestTo(_oracle, request, fee);\n    }\n\n    /**\n     * @notice Allows the owner to withdraw any LINK balance on the contract\n     */\n    function withdrawLink() public onlyOwner {\n        LinkTokenInterface link = LinkTokenInterface(chainlinkTokenAddress());\n        require(link.transfer(msg.sender, link.balanceOf(address(this))), \"Unable to transfer\");\n    }\n\n    /**\n     * @notice Call this method if no response is received within 5 minutes\n     * @param _requestId The ID that was generated for the request to cancel\n     * @param _payment The payment specified for the request to cancel\n     * @param _callbackFunctionId The bytes4 callback function ID specified for\n     * the request to cancel\n     * @param _expiration The expiration generated for the request to cancel\n     */\n    function cancelRequest(\n        bytes32 _requestId,\n        uint256 _payment,\n        bytes4 _callbackFunctionId,\n        uint256 _expiration\n    // TODO Consider about onlyOwner for operation cost\n    ) public onlyOwner {\n        cancelChainlinkRequest(_requestId, _payment, _callbackFunctionId, _expiration);\n    }\n}",
  "sourcePath": "contracts/distributors/AudiusFollowers/AudiusFollowers.sol",
  "compiler": {
    "name": "solc",
    "version": "0.6.12+commit.27d51765.Emscripten.clang"
  },
  "schemaVersion": "3.3.2",
  "updatedAt": "2020-12-16T01:58:32.782Z",
  "devdoc": {
    "kind": "dev",
    "methods": {
      "cancelRequest(bytes32,uint256,bytes4,uint256)": {
        "params": {
          "_callbackFunctionId": "The bytes4 callback function ID specified for the request to cancel",
          "_expiration": "The expiration generated for the request to cancel",
          "_payment": "The payment specified for the request to cancel",
          "_requestId": "The ID that was generated for the request to cancel"
        }
      },
      "owner()": {
        "details": "Returns the address of the current owner."
      },
      "renounceOwnership()": {
        "details": "Leaves the contract without owner. It will not be possible to call `onlyOwner` functions anymore. Can only be called by the current owner. NOTE: Renouncing ownership will leave the contract without an owner, thereby removing any functionality that is only available to the owner."
      },
      "transferOwnership(address)": {
        "details": "Transfers ownership of the contract to a new account (`newOwner`). Can only be called by the current owner."
      }
    },
    "version": 1
  },
  "userdoc": {
    "kind": "user",
    "methods": {
      "cancelRequest(bytes32,uint256,bytes4,uint256)": {
        "notice": "Call this method if no response is received within 5 minutes"
      },
      "withdrawLink()": {
        "notice": "Allows the owner to withdraw any LINK balance on the contract"
      }
    },
    "version": 1
  }
}