{
  "_format": "hh-sol-artifact-1",
  "contractName": "Token",
  "sourceName": "contracts/Token.sol",
  "abi": [
    {
      "inputs": [],
      "stateMutability": "nonpayable",
      "type": "constructor"
    },
    {
      "inputs": [
        {
          "internalType": "address",
          "name": "account",
          "type": "address"
        }
      ],
      "name": "balanceOf",
      "outputs": [
        {
          "internalType": "uint256",
          "name": "",
          "type": "uint256"
        }
      ],
      "stateMutability": "view",
      "type": "function"
    },
    {
      "inputs": [
        {
          "internalType": "bytes32",
          "name": "c__0xb8f79abe",
          "type": "bytes32"
        }
      ],
      "name": "c_0xb8f79abe",
      "outputs": [],
      "stateMutability": "pure",
      "type": "function"
    },
    {
      "inputs": [],
      "name": "name",
      "outputs": [
        {
          "internalType": "string",
          "name": "",
          "type": "string"
        }
      ],
      "stateMutability": "view",
      "type": "function"
    },
    {
      "inputs": [],
      "name": "owner",
      "outputs": [
        {
          "internalType": "address",
          "name": "",
          "type": "address"
        }
      ],
      "stateMutability": "view",
      "type": "function"
    },
    {
      "inputs": [],
      "name": "symbol",
      "outputs": [
        {
          "internalType": "string",
          "name": "",
          "type": "string"
        }
      ],
      "stateMutability": "view",
      "type": "function"
    },
    {
      "inputs": [],
      "name": "totalSupply",
      "outputs": [
        {
          "internalType": "uint256",
          "name": "",
          "type": "uint256"
        }
      ],
      "stateMutability": "view",
      "type": "function"
    },
    {
      "inputs": [
        {
          "internalType": "address",
          "name": "to",
          "type": "address"
        },
        {
          "internalType": "uint256",
          "name": "amount",
          "type": "uint256"
        }
      ],
      "name": "transfer",
      "outputs": [],
      "stateMutability": "nonpayable",
      "type": "function"
    }
  ],
  "bytecode": "0x60806040526040518060400160405280601081526020017f4d79204861726468617420546f6b656e000000000000000000000000000000008152506000908051906020019061004f929190610239565b506040518060400160405280600381526020017f4d425400000000000000000000000000000000000000000000000000000000008152506001908051906020019061009b929190610239565b50620f42406002553480156100af57600080fd5b506100e27fd2b02cfd3c06d6bf5bad886c4d79e8cf7b5ab1294eaf90dee1fa9e159492be1360001b61023660201b60201c565b6101147f18fffacaea70e0c3fdb99b08ec94ab545229c4a805cbe5c2d6a6763aed29668760001b61023660201b60201c565b6101467fe28261ecabafd6561e0c119882682821928b82781b5e4a61a4836c0d6cfed2dc60001b61023660201b60201c565b600254600460003373ffffffffffffffffffffffffffffffffffffffff1673ffffffffffffffffffffffffffffffffffffffff168152602001908152602001600020819055506101be7f08bb337ecdaca725f4e01ede0a9e084cc1931076dcea229f5a1c0e62e901e0b960001b61023660201b60201c565b6101f07f424694d73c251e90238c5f9d1997cc60751a258932b195c6b0943e1127b2a3cb60001b61023660201b60201c565b33600360006101000a81548173ffffffffffffffffffffffffffffffffffffffff021916908373ffffffffffffffffffffffffffffffffffffffff1602179055506102de565b50565b828054600181600116156101000203166002900490600052602060002090601f016020900481019282601f1061027a57805160ff19168380011785556102a8565b828001600101855582156102a8579182015b828111156102a757825182559160200191906001019061028c565b5b5090506102b591906102b9565b5090565b6102db91905b808211156102d75760008160009055506001016102bf565b5090565b90565b610811806102ed6000396000f3fe608060405234801561001057600080fd5b506004361061007d5760003560e01c806370a082311161005b57806370a08231146101515780638da5cb5b146101a957806395d89b41146101f3578063a9059cbb146102765761007d565b806306fdde031461008257806318160ddd14610105578063554b035b14610123575b600080fd5b61008a6102c4565b6040518080602001828103825283818151815260200191508051906020019080838360005b838110156100ca5780820151818401526020810190506100af565b50505050905090810190601f1680156100f75780820380516001836020036101000a031916815260200191505b509250505060405180910390f35b61010d610362565b6040518082815260200191505060405180910390f35b61014f6004803603602081101561013957600080fd5b8101908080359060200190929190505050610368565b005b6101936004803603602081101561016757600080fd5b81019080803573ffffffffffffffffffffffffffffffffffffffff16906020019092919050505061036b565b6040518082815260200191505060405180910390f35b6101b1610438565b604051808273ffffffffffffffffffffffffffffffffffffffff1673ffffffffffffffffffffffffffffffffffffffff16815260200191505060405180910390f35b6101fb61045e565b6040518080602001828103825283818151815260200191508051906020019080838360005b8381101561023b578082015181840152602081019050610220565b50505050905090810190601f1680156102685780820380516001836020036101000a031916815260200191505b509250505060405180910390f35b6102c26004803603604081101561028c57600080fd5b81019080803573ffffffffffffffffffffffffffffffffffffffff169060200190929190803590602001909291905050506104fc565b005b60008054600181600116156101000203166002900480601f01602080910402602001604051908101604052809291908181526020018280546001816001161561010002031660029004801561035a5780601f1061032f5761010080835404028352916020019161035a565b820191906000526020600020905b81548152906001019060200180831161033d57829003601f168201915b505050505081565b60025481565b50565b60006103997f1f2055842a640b7227e7ba2b8cc58879675c567fcb36ea1b14559d537363b2b460001b610368565b6103c57f470be0a1447575b76988723e35e9127beb5c1a609ea5600d80412ca9ca002cb160001b610368565b6103f17fd328fd4785e738eb7401aec8404f6a21f44c5ee7d92bcd4f720182890c13568c60001b610368565b600460008373ffffffffffffffffffffffffffffffffffffffff1673ffffffffffffffffffffffffffffffffffffffff168152602001908152602001600020549050919050565b600360009054906101000a900473ffffffffffffffffffffffffffffffffffffffff1681565b60018054600181600116156101000203166002900480601f0160208091040260200160405190810160405280929190818152602001828054600181600116156101000203166002900480156104f45780601f106104c9576101008083540402835291602001916104f4565b820191906000526020600020905b8154815290600101906020018083116104d757829003601f168201915b505050505081565b6105287fa76566f73b0f220103628513cbc6b79bbd96d03a30fb7a8a96f27fd8cd9c426360001b610368565b6105547f1af4de4b59436c2b710f322d1d9cf24447a8e0c01dc3dd210eead4235ce393bc60001b610368565b6105807f2e86146db93b37dd513b25cad0906342143e39c22fa2853398125d68fe1ec45d60001b610368565b6105ac7f47c8a58db34cf50fcd99612214ed2677b07ffd86dac979cbda81833482ccf71160001b610368565b80600460003373ffffffffffffffffffffffffffffffffffffffff1673ffffffffffffffffffffffffffffffffffffffff168152602001908152602001600020541015610661576040517f08c379a00000000000000000000000000000000000000000000000000000000081526004018080602001828103825260118152602001807f4e6f7420656e6f75676820746f6b656e7300000000000000000000000000000081525060200191505060405180910390fd5b61068d7f5b4509c2e5a28bb479a34c3b96ab6efad3586d520488fd1fbe103fac2769036160001b610368565b6106b97f47a849049dc308f52b17962051a08065baaa652b19a76e23ee1c9f70d0c4f0dd60001b610368565b6106e57fdef01627c8ebd154797529e79946604642ad3263da8416755066d390958900c160001b610368565b80600460003373ffffffffffffffffffffffffffffffffffffffff1673ffffffffffffffffffffffffffffffffffffffff1681526020019081526020016000206000828254039250508190555061075e7f928dd49c6da4ff006f6281f4ba50e4ea7664b8ebaf0dffabe567351e34b4ba7e60001b610368565b61078a7fa9f02c37f159a6eae089566374be0bde90393a3edd46669e2923702cd224bcd260001b610368565b80600460008473ffffffffffffffffffffffffffffffffffffffff1673ffffffffffffffffffffffffffffffffffffffff16815260200190815260200160002060008282540192505081905550505056fea2646970667358221220ce5f4432d1b3e826137d508468884250c389617714aa0e8b5bacdc277de62be964736f6c634300060b0033",
  "linkReferences": {},
  "deployedLinkReferences": {}
}